{
  "_format": "hh-sol-artifact-1",
  "contractName": "ControllerManager",
  "sourceName": "contracts/ControllerManager.sol",
  "abi": [
    {
      "inputs": [],
      "stateMutability": "nonpayable",
      "type": "constructor"
    },
    {
      "inputs": [],
      "name": "AccessControlBadConfirmation",
      "type": "error"
    },
    {
      "inputs": [
        {
          "internalType": "address",
          "name": "account",
          "type": "address"
        },
        {
          "internalType": "bytes32",
          "name": "neededRole",
          "type": "bytes32"
        }
      ],
      "name": "AccessControlUnauthorizedAccount",
      "type": "error"
    },
    {
      "inputs": [
        {
          "internalType": "address",
          "name": "sender",
          "type": "address"
        },
        {
          "internalType": "uint256",
          "name": "tokenId",
          "type": "uint256"
        },
        {
          "internalType": "address",
          "name": "owner",
          "type": "address"
        }
      ],
      "name": "ERC721IncorrectOwner",
      "type": "error"
    },
    {
      "inputs": [
        {
          "internalType": "address",
          "name": "operator",
          "type": "address"
        },
        {
          "internalType": "uint256",
          "name": "tokenId",
          "type": "uint256"
        }
      ],
      "name": "ERC721InsufficientApproval",
      "type": "error"
    },
    {
      "inputs": [
        {
          "internalType": "address",
          "name": "approver",
          "type": "address"
        }
      ],
      "name": "ERC721InvalidApprover",
      "type": "error"
    },
    {
      "inputs": [
        {
          "internalType": "address",
          "name": "operator",
          "type": "address"
        }
      ],
      "name": "ERC721InvalidOperator",
      "type": "error"
    },
    {
      "inputs": [
        {
          "internalType": "address",
          "name": "owner",
          "type": "address"
        }
      ],
      "name": "ERC721InvalidOwner",
      "type": "error"
    },
    {
      "inputs": [
        {
          "internalType": "address",
          "name": "receiver",
          "type": "address"
        }
      ],
      "name": "ERC721InvalidReceiver",
      "type": "error"
    },
    {
      "inputs": [
        {
          "internalType": "address",
          "name": "sender",
          "type": "address"
        }
      ],
      "name": "ERC721InvalidSender",
      "type": "error"
    },
    {
      "inputs": [
        {
          "internalType": "uint256",
          "name": "tokenId",
          "type": "uint256"
        }
      ],
      "name": "ERC721NonexistentToken",
      "type": "error"
    },
    {
      "anonymous": false,
      "inputs": [
        {
          "indexed": true,
          "internalType": "address",
          "name": "owner",
          "type": "address"
        },
        {
          "indexed": true,
          "internalType": "address",
          "name": "approved",
          "type": "address"
        },
        {
          "indexed": true,
          "internalType": "uint256",
          "name": "tokenId",
          "type": "uint256"
        }
      ],
      "name": "Approval",
      "type": "event"
    },
    {
      "anonymous": false,
      "inputs": [
        {
          "indexed": true,
          "internalType": "address",
          "name": "owner",
          "type": "address"
        },
        {
          "indexed": true,
          "internalType": "address",
          "name": "operator",
          "type": "address"
        },
        {
          "indexed": false,
          "internalType": "bool",
          "name": "approved",
          "type": "bool"
        }
      ],
      "name": "ApprovalForAll",
      "type": "event"
    },
    {
      "anonymous": false,
      "inputs": [
        {
          "indexed": false,
          "internalType": "uint256",
          "name": "_fromTokenId",
          "type": "uint256"
        },
        {
          "indexed": false,
          "internalType": "uint256",
          "name": "_toTokenId",
          "type": "uint256"
        }
      ],
      "name": "BatchMetadataUpdate",
      "type": "event"
    },
    {
      "anonymous": false,
      "inputs": [
        {
          "indexed": false,
          "internalType": "uint256",
          "name": "_tokenId",
          "type": "uint256"
        }
      ],
      "name": "MetadataUpdate",
      "type": "event"
    },
    {
      "anonymous": false,
      "inputs": [
        {
          "indexed": true,
          "internalType": "bytes32",
          "name": "role",
          "type": "bytes32"
        },
        {
          "indexed": true,
          "internalType": "bytes32",
          "name": "previousAdminRole",
          "type": "bytes32"
        },
        {
          "indexed": true,
          "internalType": "bytes32",
          "name": "newAdminRole",
          "type": "bytes32"
        }
      ],
      "name": "RoleAdminChanged",
      "type": "event"
    },
    {
      "anonymous": false,
      "inputs": [
        {
          "indexed": true,
          "internalType": "bytes32",
          "name": "role",
          "type": "bytes32"
        },
        {
          "indexed": true,
          "internalType": "address",
          "name": "account",
          "type": "address"
        },
        {
          "indexed": true,
          "internalType": "address",
          "name": "sender",
          "type": "address"
        }
      ],
      "name": "RoleGranted",
      "type": "event"
    },
    {
      "anonymous": false,
      "inputs": [
        {
          "indexed": true,
          "internalType": "bytes32",
          "name": "role",
          "type": "bytes32"
        },
        {
          "indexed": true,
          "internalType": "address",
          "name": "account",
          "type": "address"
        },
        {
          "indexed": true,
          "internalType": "address",
          "name": "sender",
          "type": "address"
        }
      ],
      "name": "RoleRevoked",
      "type": "event"
    },
    {
      "anonymous": false,
      "inputs": [
        {
          "indexed": true,
          "internalType": "address",
          "name": "from",
          "type": "address"
        },
        {
          "indexed": true,
          "internalType": "address",
          "name": "to",
          "type": "address"
        },
        {
          "indexed": true,
          "internalType": "uint256",
          "name": "tokenId",
          "type": "uint256"
        }
      ],
      "name": "Transfer",
      "type": "event"
    },
    {
      "inputs": [],
      "name": "ADMIN_ROLE",
      "outputs": [
        {
          "internalType": "bytes32",
          "name": "",
          "type": "bytes32"
        }
      ],
      "stateMutability": "view",
      "type": "function"
    },
    {
      "inputs": [],
      "name": "DEFAULT_ADMIN_ROLE",
      "outputs": [
        {
          "internalType": "bytes32",
          "name": "",
          "type": "bytes32"
        }
      ],
      "stateMutability": "view",
      "type": "function"
    },
    {
      "inputs": [],
      "name": "HOMEOWNER_ROLE",
      "outputs": [
        {
          "internalType": "bytes32",
          "name": "",
          "type": "bytes32"
        }
      ],
      "stateMutability": "view",
      "type": "function"
    },
    {
      "inputs": [
        {
          "internalType": "address",
          "name": "homeowner",
          "type": "address"
        },
        {
          "internalType": "string",
          "name": "uri",
          "type": "string"
        }
      ],
      "name": "addHomeController",
      "outputs": [],
      "stateMutability": "nonpayable",
      "type": "function"
    },
    {
      "inputs": [
        {
          "internalType": "address",
          "name": "to",
          "type": "address"
        },
        {
          "internalType": "uint256",
          "name": "tokenId",
          "type": "uint256"
        }
      ],
      "name": "approve",
      "outputs": [],
      "stateMutability": "nonpayable",
      "type": "function"
    },
    {
      "inputs": [
        {
          "internalType": "uint256",
          "name": "controllerTokenId",
          "type": "uint256"
        },
        {
          "internalType": "string",
          "name": "uri",
          "type": "string"
        }
      ],
      "name": "attachHomeDevice",
      "outputs": [],
      "stateMutability": "nonpayable",
      "type": "function"
    },
    {
      "inputs": [
        {
          "internalType": "address",
          "name": "owner",
          "type": "address"
        }
      ],
      "name": "balanceOf",
      "outputs": [
        {
          "internalType": "uint256",
          "name": "",
          "type": "uint256"
        }
      ],
      "stateMutability": "view",
      "type": "function"
    },
    {
      "inputs": [
        {
          "internalType": "uint256",
          "name": "tokenId",
          "type": "uint256"
        }
      ],
      "name": "burn",
      "outputs": [],
      "stateMutability": "nonpayable",
      "type": "function"
    },
    {
      "inputs": [
        {
          "internalType": "uint256",
          "name": "",
          "type": "uint256"
        },
        {
          "internalType": "uint256",
          "name": "",
          "type": "uint256"
        }
      ],
      "name": "controllerToDevices",
      "outputs": [
        {
          "internalType": "uint256",
          "name": "",
          "type": "uint256"
        }
      ],
      "stateMutability": "view",
      "type": "function"
    },
    {
      "inputs": [
        {
          "internalType": "uint256",
          "name": "controllerTokenId",
          "type": "uint256"
        },
        {
          "internalType": "uint256",
          "name": "deviceTokenId",
          "type": "uint256"
        }
      ],
      "name": "detachHomeDevice",
      "outputs": [],
      "stateMutability": "nonpayable",
      "type": "function"
    },
    {
      "inputs": [
        {
          "internalType": "uint256",
          "name": "",
          "type": "uint256"
        }
      ],
      "name": "deviceToController",
      "outputs": [
        {
          "internalType": "uint256",
          "name": "",
          "type": "uint256"
        }
      ],
      "stateMutability": "view",
      "type": "function"
    },
    {
      "inputs": [
        {
          "internalType": "uint256",
          "name": "tokenId",
          "type": "uint256"
        }
      ],
      "name": "getApproved",
      "outputs": [
        {
          "internalType": "address",
          "name": "",
          "type": "address"
        }
      ],
      "stateMutability": "view",
      "type": "function"
    },
    {
      "inputs": [
        {
          "internalType": "uint256",
          "name": "controllerTokenId",
          "type": "uint256"
        }
      ],
      "name": "getHomeControllerAttachedDevices",
      "outputs": [
        {
          "internalType": "uint256[]",
          "name": "devices",
          "type": "uint256[]"
        }
      ],
      "stateMutability": "view",
      "type": "function"
    },
    {
      "inputs": [
        {
          "internalType": "uint256",
          "name": "controllerTokenId",
          "type": "uint256"
        }
      ],
      "name": "getHomeControllerDevices",
      "outputs": [
        {
          "internalType": "uint256[]",
          "name": "devices",
          "type": "uint256[]"
        }
      ],
      "stateMutability": "view",
      "type": "function"
    },
    {
      "inputs": [],
      "name": "getHomeControllers",
      "outputs": [
        {
          "internalType": "uint256[]",
          "name": "controllers",
          "type": "uint256[]"
        }
      ],
      "stateMutability": "view",
      "type": "function"
    },
    {
      "inputs": [
        {
          "internalType": "bytes32",
          "name": "role",
          "type": "bytes32"
        }
      ],
      "name": "getRoleAdmin",
      "outputs": [
        {
          "internalType": "bytes32",
          "name": "",
          "type": "bytes32"
        }
      ],
      "stateMutability": "view",
      "type": "function"
    },
    {
      "inputs": [
        {
          "internalType": "bytes32",
          "name": "role",
          "type": "bytes32"
        },
        {
          "internalType": "address",
          "name": "account",
          "type": "address"
        }
      ],
      "name": "grantRole",
      "outputs": [],
      "stateMutability": "nonpayable",
      "type": "function"
    },
    {
      "inputs": [
        {
          "internalType": "bytes32",
          "name": "role",
          "type": "bytes32"
        },
        {
          "internalType": "address",
          "name": "account",
          "type": "address"
        }
      ],
      "name": "hasRole",
      "outputs": [
        {
          "internalType": "bool",
          "name": "",
          "type": "bool"
        }
      ],
      "stateMutability": "view",
      "type": "function"
    },
    {
      "inputs": [
        {
          "internalType": "address",
          "name": "owner",
          "type": "address"
        },
        {
          "internalType": "address",
          "name": "operator",
          "type": "address"
        }
      ],
      "name": "isApprovedForAll",
      "outputs": [
        {
          "internalType": "bool",
          "name": "",
          "type": "bool"
        }
      ],
      "stateMutability": "view",
      "type": "function"
    },
    {
      "inputs": [],
      "name": "name",
      "outputs": [
        {
          "internalType": "string",
          "name": "",
          "type": "string"
        }
      ],
      "stateMutability": "view",
      "type": "function"
    },
    {
      "inputs": [
        {
          "internalType": "uint256",
          "name": "tokenId",
          "type": "uint256"
        }
      ],
      "name": "ownerOf",
      "outputs": [
        {
          "internalType": "address",
          "name": "",
          "type": "address"
        }
      ],
      "stateMutability": "view",
      "type": "function"
    },
    {
      "inputs": [
        {
          "internalType": "uint256",
          "name": "controllerTokenId",
          "type": "uint256"
        }
      ],
      "name": "removeHomeController",
      "outputs": [],
      "stateMutability": "nonpayable",
      "type": "function"
    },
    {
      "inputs": [
        {
          "internalType": "bytes32",
          "name": "role",
          "type": "bytes32"
        },
        {
          "internalType": "address",
          "name": "callerConfirmation",
          "type": "address"
        }
      ],
      "name": "renounceRole",
      "outputs": [],
      "stateMutability": "nonpayable",
      "type": "function"
    },
    {
      "inputs": [
        {
          "internalType": "bytes32",
          "name": "role",
          "type": "bytes32"
        },
        {
          "internalType": "address",
          "name": "account",
          "type": "address"
        }
      ],
      "name": "revokeRole",
      "outputs": [],
      "stateMutability": "nonpayable",
      "type": "function"
    },
    {
      "inputs": [
        {
          "internalType": "address",
          "name": "from",
          "type": "address"
        },
        {
          "internalType": "address",
          "name": "to",
          "type": "address"
        },
        {
          "internalType": "uint256",
          "name": "tokenId",
          "type": "uint256"
        }
      ],
      "name": "safeTransferFrom",
      "outputs": [],
      "stateMutability": "nonpayable",
      "type": "function"
    },
    {
      "inputs": [
        {
          "internalType": "address",
          "name": "from",
          "type": "address"
        },
        {
          "internalType": "address",
          "name": "to",
          "type": "address"
        },
        {
          "internalType": "uint256",
          "name": "tokenId",
          "type": "uint256"
        },
        {
          "internalType": "bytes",
          "name": "data",
          "type": "bytes"
        }
      ],
      "name": "safeTransferFrom",
      "outputs": [],
      "stateMutability": "nonpayable",
      "type": "function"
    },
    {
      "inputs": [
        {
          "internalType": "address",
          "name": "operator",
          "type": "address"
        },
        {
          "internalType": "bool",
          "name": "approved",
          "type": "bool"
        }
      ],
      "name": "setApprovalForAll",
      "outputs": [],
      "stateMutability": "nonpayable",
      "type": "function"
    },
    {
      "inputs": [
        {
          "internalType": "address",
          "name": "dataSharingAddress",
          "type": "address"
        }
      ],
      "name": "setDataAccessSubscriptionManagerContract",
      "outputs": [],
      "stateMutability": "nonpayable",
      "type": "function"
    },
    {
      "inputs": [
        {
          "internalType": "address",
          "name": "deviceManagerAddress",
          "type": "address"
        }
      ],
      "name": "setDeviceManagerContract",
      "outputs": [],
      "stateMutability": "nonpayable",
      "type": "function"
    },
    {
      "inputs": [
        {
          "internalType": "bytes4",
          "name": "interfaceId",
          "type": "bytes4"
        }
      ],
      "name": "supportsInterface",
      "outputs": [
        {
          "internalType": "bool",
          "name": "",
          "type": "bool"
        }
      ],
      "stateMutability": "view",
      "type": "function"
    },
    {
      "inputs": [],
      "name": "symbol",
      "outputs": [
        {
          "internalType": "string",
          "name": "",
          "type": "string"
        }
      ],
      "stateMutability": "view",
      "type": "function"
    },
    {
      "inputs": [
        {
          "internalType": "uint256",
          "name": "tokenId",
          "type": "uint256"
        }
      ],
      "name": "tokenURI",
      "outputs": [
        {
          "internalType": "string",
          "name": "",
          "type": "string"
        }
      ],
      "stateMutability": "view",
      "type": "function"
    },
    {
      "inputs": [
        {
          "internalType": "address",
          "name": "from",
          "type": "address"
        },
        {
          "internalType": "address",
          "name": "to",
          "type": "address"
        },
        {
          "internalType": "uint256",
          "name": "tokenId",
          "type": "uint256"
        }
      ],
      "name": "transferFrom",
      "outputs": [],
      "stateMutability": "nonpayable",
      "type": "function"
    },
    {
      "inputs": [
        {
          "internalType": "uint256",
          "name": "homeControllerTokenId",
          "type": "uint256"
        },
        {
          "internalType": "address",
          "name": "newOwner",
          "type": "address"
        }
      ],
      "name": "transferHomeControllerOwnership",
      "outputs": [],
      "stateMutability": "nonpayable",
      "type": "function"
    }
  ],
  "bytecode": "0x6080604052600160095534801561001557600080fd5b506040518060400160405280601881526020017f486f6d654175746f6d6174696f6e436f6e74726f6c6c657200000000000000008152506040518060400160405280600381526020017f48414300000000000000000000000000000000000000000000000000000000008152508160009081610091919061049b565b5080600190816100a1919061049b565b5050506100d47fa49807205ce4d355092ef5a8a18f56e8913cf4a201fbe287825b095693c21775336100da60201b60201c565b5061056d565b60006100ec83836101d860201b60201c565b6101cd5760016007600085815260200190815260200160002060000160008473ffffffffffffffffffffffffffffffffffffffff1673ffffffffffffffffffffffffffffffffffffffff16815260200190815260200160002060006101000a81548160ff02191690831515021790555061016a61024360201b60201c565b73ffffffffffffffffffffffffffffffffffffffff168273ffffffffffffffffffffffffffffffffffffffff16847f2f8788117e7eff1d82e926ec794901d17c78024a50270940304540a733656f0d60405160405180910390a4600190506101d2565b600090505b92915050565b60006007600084815260200190815260200160002060000160008373ffffffffffffffffffffffffffffffffffffffff1673ffffffffffffffffffffffffffffffffffffffff16815260200190815260200160002060009054906101000a900460ff16905092915050565b600033905090565b600081519050919050565b7f4e487b7100000000000000000000000000000000000000000000000000000000600052604160045260246000fd5b7f4e487b7100000000000000000000000000000000000000000000000000000000600052602260045260246000fd5b600060028204905060018216806102cc57607f821691505b6020821081036102df576102de610285565b5b50919050565b60008190508160005260206000209050919050565b60006020601f8301049050919050565b600082821b905092915050565b6000600883026103477fffffffffffffffffffffffffffffffffffffffffffffffffffffffffffffffff8261030a565b610351868361030a565b95508019841693508086168417925050509392505050565b6000819050919050565b6000819050919050565b600061039861039361038e84610369565b610373565b610369565b9050919050565b6000819050919050565b6103b28361037d565b6103c66103be8261039f565b848454610317565b825550505050565b600090565b6103db6103ce565b6103e68184846103a9565b505050565b5b8181101561040a576103ff6000826103d3565b6001810190506103ec565b5050565b601f82111561044f57610420816102e5565b610429846102fa565b81016020851015610438578190505b61044c610444856102fa565b8301826103eb565b50505b505050565b600082821c905092915050565b600061047260001984600802610454565b1980831691505092915050565b600061048b8383610461565b9150826002028217905092915050565b6104a48261024b565b67ffffffffffffffff8111156104bd576104bc610256565b5b6104c782546102b4565b6104d282828561040e565b600060209050601f83116001811461050557600084156104f3578287015190505b6104fd858261047f565b865550610565565b601f198416610513866102e5565b60005b8281101561053b57848901518255600182019150602085019450602081019050610516565b868310156105585784890151610554601f891682610461565b8355505b6001600288020188555050505b505050505050565b6144c28061057c6000396000f3fe608060405234801561001057600080fd5b50600436106102065760003560e01c806370a082311161011a578063b88d4fde116100ad578063d547741f1161007c578063d547741f1461061d578063d7480e9414610639578063e1cfa1cf14610655578063e985e9c514610673578063f6808467146106a357610206565b8063b88d4fde14610583578063c87b56dd1461059f578063ca986a43146105cf578063cedec27c146105ff57610206565b806395d89b41116100e957806395d89b411461050f578063973a06ab1461052d578063a217fddf14610549578063a22cb4651461056757610206565b806370a082311461047557806375b238fc146104a55780637884318d146104c357806391d14854146104df57610206565b806323b872dd1161019d5780633a42c3001161016c5780633a42c300146103d557806342842e0e146103f157806342966c681461040d5780636352211e146104295780636a1a9db61461045957610206565b806323b872dd14610351578063248a9ca31461036d5780632f2ff15d1461039d57806336568abe146103b957610206565b8063095ea7b3116101d9578063095ea7b3146102b957806310c560af146102d5578063174db1a714610305578063220ebee31461033557610206565b806301ffc9a71461020b57806304f650381461023b57806306fdde031461026b578063081812fc14610289575b600080fd5b61022560048036038101906102209190613127565b6106bf565b604051610232919061316f565b60405180910390f35b610255600480360381019061025091906131c0565b6106d1565b60405161026291906131fc565b60405180910390f35b6102736106e9565b60405161028091906132a7565b60405180910390f35b6102a3600480360381019061029e91906131c0565b61077b565b6040516102b0919061330a565b60405180910390f35b6102d360048036038101906102ce9190613351565b610797565b005b6102ef60048036038101906102ea91906131c0565b6107ad565b6040516102fc919061344f565b60405180910390f35b61031f600480360381019061031a91906131c0565b6108b9565b60405161032c919061344f565b60405180910390f35b61034f600480360381019061034a91906135a6565b610924565b005b61036b60048036038101906103669190613602565b610ac0565b005b6103876004803603810190610382919061368b565b610bc2565b60405161039491906136c7565b60405180910390f35b6103b760048036038101906103b291906136e2565b610be2565b005b6103d360048036038101906103ce91906136e2565b610c04565b005b6103ef60048036038101906103ea9190613722565b610c7f565b005b61040b60048036038101906104069190613602565b610d5d565b005b610427600480360381019061042291906131c0565b610d7d565b005b610443600480360381019061043e91906131c0565b610d94565b604051610450919061330a565b60405180910390f35b610473600480360381019061046e91906131c0565b610da6565b005b61048f600480360381019061048a9190613722565b611029565b60405161049c91906131fc565b60405180910390f35b6104ad6110e3565b6040516104ba91906136c7565b60405180910390f35b6104dd60048036038101906104d8919061374f565b611107565b005b6104f960048036038101906104f491906136e2565b611404565b604051610506919061316f565b60405180910390f35b61051761146f565b60405161052491906132a7565b60405180910390f35b6105476004803603810190610542919061378f565b611501565b005b61055161171e565b60405161055e91906136c7565b60405180910390f35b610581600480360381019061057c91906137fb565b611725565b005b61059d600480360381019061059891906138dc565b61173b565b005b6105b960048036038101906105b491906131c0565b611760565b6040516105c691906132a7565b60405180910390f35b6105e960048036038101906105e4919061378f565b611772565b6040516105f691906131fc565b60405180910390f35b6106076117a3565b604051610614919061344f565b60405180910390f35b610637600480360381019061063291906136e2565b611826565b005b610653600480360381019061064e9190613722565b611848565b005b61065d611926565b60405161066a91906136c7565b60405180910390f35b61068d6004803603810190610688919061395f565b61194a565b60405161069a919061316f565b60405180910390f35b6106bd60048036038101906106b8919061399f565b6119de565b005b60006106ca82611b00565b9050919050565b600c6020528060005260406000206000915090505481565b6060600080546106f890613a2a565b80601f016020809104026020016040519081016040528092919081815260200182805461072490613a2a565b80156107715780601f1061074657610100808354040283529160200191610771565b820191906000526020600020905b81548152906001019060200180831161075457829003601f168201915b5050505050905090565b600061078682611b7a565b5061079082611c02565b9050919050565b6107a982826107a4611c3f565b611c47565b5050565b60607fab7860b04e71440cefa9914962488fc0e906a52749f1fcbb2e2a725eb61fc19b6107d981611c59565b3373ffffffffffffffffffffffffffffffffffffffff166107f984610d94565b73ffffffffffffffffffffffffffffffffffffffff161461084f576040517f08c379a000000000000000000000000000000000000000000000000000000000815260040161084690613acd565b60405180910390fd5b600d60008481526020019081526020016000208054806020026020016040519081016040528092919081815260200182805480156108ac57602002820191906000526020600020905b815481526020019060010190808311610898575b5050505050915050919050565b6060600d600083815260200190815260200160002080548060200260200160405190810160405280929190818152602001828054801561091857602002820191906000526020600020905b815481526020019060010190808311610904575b50505050509050919050565b7fab7860b04e71440cefa9914962488fc0e906a52749f1fcbb2e2a725eb61fc19b61094e81611c59565b3373ffffffffffffffffffffffffffffffffffffffff1661096e84610d94565b73ffffffffffffffffffffffffffffffffffffffff16146109c4576040517f08c379a00000000000000000000000000000000000000000000000000000000081526004016109bb90613acd565b60405180910390fd5b6000600b60009054906101000a900473ffffffffffffffffffffffffffffffffffffffff1673ffffffffffffffffffffffffffffffffffffffff1663ca7d166733856040518363ffffffff1660e01b8152600401610a23929190613aed565b6020604051808303816000875af1158015610a42573d6000803e3d6000fd5b505050506040513d601f19601f82011682018060405250810190610a669190613b32565b905083600c600083815260200190815260200160002081905550600d600085815260200190815260200160002081908060018154018082558091505060019003906000526020600020016000909190919091505550505050565b600073ffffffffffffffffffffffffffffffffffffffff168273ffffffffffffffffffffffffffffffffffffffff1603610b325760006040517f64a0ae92000000000000000000000000000000000000000000000000000000008152600401610b29919061330a565b60405180910390fd5b6000610b468383610b41611c3f565b611c6d565b90508373ffffffffffffffffffffffffffffffffffffffff168173ffffffffffffffffffffffffffffffffffffffff1614610bbc578382826040517f64283d7b000000000000000000000000000000000000000000000000000000008152600401610bb393929190613b5f565b60405180910390fd5b50505050565b600060076000838152602001908152602001600020600101549050919050565b610beb82610bc2565b610bf481611c59565b610bfe8383611e87565b50505050565b610c0c611c3f565b73ffffffffffffffffffffffffffffffffffffffff168173ffffffffffffffffffffffffffffffffffffffff1614610c70576040517f6697b23200000000000000000000000000000000000000000000000000000000815260040160405180910390fd5b610c7a8282611f79565b505050565b7fa49807205ce4d355092ef5a8a18f56e8913cf4a201fbe287825b095693c21775610ca981611c59565b600073ffffffffffffffffffffffffffffffffffffffff168273ffffffffffffffffffffffffffffffffffffffff1603610d18576040517f08c379a0000000000000000000000000000000000000000000000000000000008152600401610d0f90613c08565b60405180910390fd5b81600b60006101000a81548173ffffffffffffffffffffffffffffffffffffffff021916908373ffffffffffffffffffffffffffffffffffffffff1602179055505050565b610d788383836040518060200160405280600081525061173b565b505050565b610d90600082610d8b611c3f565b611c6d565b5050565b6000610d9f82611b7a565b9050919050565b610dd07fab7860b04e71440cefa9914962488fc0e906a52749f1fcbb2e2a725eb61fc19b33611404565b80610e015750610e007fa49807205ce4d355092ef5a8a18f56e8913cf4a201fbe287825b095693c2177533611404565b5b610e40576040517f08c379a0000000000000000000000000000000000000000000000000000000008152600401610e3790613c9a565b60405180910390fd5b6000600d6000838152602001908152602001600020905060005b8180549050811015610f3a576000828281548110610e7b57610e7a613cba565b5b90600052602060002001549050600b60009054906101000a900473ffffffffffffffffffffffffffffffffffffffff1673ffffffffffffffffffffffffffffffffffffffff16635fa8724b826040518263ffffffff1660e01b8152600401610ee391906131fc565b600060405180830381600087803b158015610efd57600080fd5b505af1158015610f11573d6000803e3d6000fd5b50505050600c600082815260200190815260200160002060009055508080600101915050610e5a565b50600d60008381526020019081526020016000206000610f5a919061307d565b610f638261206c565b60005b600880549050811015611024578260088281548110610f8857610f87613cba565b5b9060005260206000200154036110175760086001600880549050610fac9190613d18565b81548110610fbd57610fbc613cba565b5b906000526020600020015460088281548110610fdc57610fdb613cba565b5b90600052602060002001819055506008805480610ffc57610ffb613d4c565b5b60019003818190600052602060002001600090559055611024565b8080600101915050610f66565b505050565b60008073ffffffffffffffffffffffffffffffffffffffff168273ffffffffffffffffffffffffffffffffffffffff160361109c5760006040517f89c62b64000000000000000000000000000000000000000000000000000000008152600401611093919061330a565b60405180910390fd5b600360008373ffffffffffffffffffffffffffffffffffffffff1673ffffffffffffffffffffffffffffffffffffffff168152602001908152602001600020549050919050565b7fa49807205ce4d355092ef5a8a18f56e8913cf4a201fbe287825b095693c2177581565b600073ffffffffffffffffffffffffffffffffffffffff168173ffffffffffffffffffffffffffffffffffffffff1603611176576040517f08c379a000000000000000000000000000000000000000000000000000000000815260040161116d90613ded565b60405180910390fd5b6111a07fab7860b04e71440cefa9914962488fc0e906a52749f1fcbb2e2a725eb61fc19b33611404565b80156111df57503373ffffffffffffffffffffffffffffffffffffffff166111c783610d94565b73ffffffffffffffffffffffffffffffffffffffff16145b61121e576040517f08c379a000000000000000000000000000000000000000000000000000000000815260040161121590613e7f565b60405180910390fd5b6000600d600084815260200190815260200160002080548060200260200160405190810160405280929190818152602001828054801561127d57602002820191906000526020600020905b815481526020019060010190808311611269575b5050505050905060005b815181101561134e5760008282815181106112a5576112a4613cba565b5b60200260200101519050600b60009054906101000a900473ffffffffffffffffffffffffffffffffffffffff1673ffffffffffffffffffffffffffffffffffffffff1663f9b343e68233876040518463ffffffff1660e01b815260040161130e93929190613e9f565b600060405180830381600087803b15801561132857600080fd5b505af115801561133c573d6000803e3d6000fd5b50505050508080600101915050611287565b5061136a338385604051806020016040528060008152506120f2565b6113947fab7860b04e71440cefa9914962488fc0e906a52749f1fcbb2e2a725eb61fc19b83611404565b6113c4576113c27fab7860b04e71440cefa9914962488fc0e906a52749f1fcbb2e2a725eb61fc19b83611e87565b505b60006113cf33611029565b036113ff576113fe7fab7860b04e71440cefa9914962488fc0e906a52749f1fcbb2e2a725eb61fc19b33611826565b5b505050565b60006007600084815260200190815260200160002060000160008373ffffffffffffffffffffffffffffffffffffffff1673ffffffffffffffffffffffffffffffffffffffff16815260200190815260200160002060009054906101000a900460ff16905092915050565b60606001805461147e90613a2a565b80601f01602080910402602001604051908101604052809291908181526020018280546114aa90613a2a565b80156114f75780601f106114cc576101008083540402835291602001916114f7565b820191906000526020600020905b8154815290600101906020018083116114da57829003601f168201915b5050505050905090565b7fab7860b04e71440cefa9914962488fc0e906a52749f1fcbb2e2a725eb61fc19b61152b81611c59565b3373ffffffffffffffffffffffffffffffffffffffff1661154b84610d94565b73ffffffffffffffffffffffffffffffffffffffff16146115a1576040517f08c379a000000000000000000000000000000000000000000000000000000000815260040161159890613acd565b60405180910390fd5b600b60009054906101000a900473ffffffffffffffffffffffffffffffffffffffff1673ffffffffffffffffffffffffffffffffffffffff16635fa8724b836040518263ffffffff1660e01b81526004016115fc91906131fc565b600060405180830381600087803b15801561161657600080fd5b505af115801561162a573d6000803e3d6000fd5b50505050600c6000838152602001908152602001600020600090556000600d6000858152602001908152602001600020905060005b8180549050811015611717578382828154811061167f5761167e613cba565b5b90600052602060002001540361170a5781600183805490506116a19190613d18565b815481106116b2576116b1613cba565b5b90600052602060002001548282815481106116d0576116cf613cba565b5b9060005260206000200181905550818054806116ef576116ee613d4c565b5b60019003818190600052602060002001600090559055611717565b808060010191505061165f565b5050505050565b6000801b81565b611737611730611c3f565b8383612117565b5050565b611746848484610ac0565b61175a611751611c3f565b85858585612286565b50505050565b606061176b82612437565b9050919050565b600d602052816000526040600020818154811061178e57600080fd5b90600052602060002001600091509150505481565b60607fa49807205ce4d355092ef5a8a18f56e8913cf4a201fbe287825b095693c217756117cf81611c59565b600880548060200260200160405190810160405280929190818152602001828054801561181b57602002820191906000526020600020905b815481526020019060010190808311611807575b505050505091505090565b61182f82610bc2565b61183881611c59565b6118428383611f79565b50505050565b7fa49807205ce4d355092ef5a8a18f56e8913cf4a201fbe287825b095693c2177561187281611c59565b600073ffffffffffffffffffffffffffffffffffffffff168273ffffffffffffffffffffffffffffffffffffffff16036118e1576040517f08c379a00000000000000000000000000000000000000000000000000000000081526004016118d890613f48565b60405180910390fd5b81600a60006101000a81548173ffffffffffffffffffffffffffffffffffffffff021916908373ffffffffffffffffffffffffffffffffffffffff1602179055505050565b7fab7860b04e71440cefa9914962488fc0e906a52749f1fcbb2e2a725eb61fc19b81565b6000600560008473ffffffffffffffffffffffffffffffffffffffff1673ffffffffffffffffffffffffffffffffffffffff16815260200190815260200160002060008373ffffffffffffffffffffffffffffffffffffffff1673ffffffffffffffffffffffffffffffffffffffff16815260200190815260200160002060009054906101000a900460ff16905092915050565b7fa49807205ce4d355092ef5a8a18f56e8913cf4a201fbe287825b095693c21775611a0881611c59565b600073ffffffffffffffffffffffffffffffffffffffff168373ffffffffffffffffffffffffffffffffffffffff1603611a77576040517f08c379a0000000000000000000000000000000000000000000000000000000008152600401611a6e90613fb4565b60405180910390fd5b600060096000815480929190611a8c90613fd4565b919050559050611a9c848261254a565b611aa68184612568565b611ad07fab7860b04e71440cefa9914962488fc0e906a52749f1fcbb2e2a725eb61fc19b85611e87565b50600881908060018154018082558091505060019003906000526020600020016000909190919091505550505050565b60007f7965db0b000000000000000000000000000000000000000000000000000000007bffffffffffffffffffffffffffffffffffffffffffffffffffffffff1916827bffffffffffffffffffffffffffffffffffffffffffffffffffffffff19161480611b735750611b72826125c4565b5b9050919050565b600080611b8683612625565b9050600073ffffffffffffffffffffffffffffffffffffffff168173ffffffffffffffffffffffffffffffffffffffff1603611bf957826040517f7e273289000000000000000000000000000000000000000000000000000000008152600401611bf091906131fc565b60405180910390fd5b80915050919050565b60006004600083815260200190815260200160002060009054906101000a900473ffffffffffffffffffffffffffffffffffffffff169050919050565b600033905090565b611c548383836001612662565b505050565b611c6a81611c65611c3f565b612827565b50565b600080611c7984612625565b9050600073ffffffffffffffffffffffffffffffffffffffff168373ffffffffffffffffffffffffffffffffffffffff1614611cbb57611cba818486612878565b5b600073ffffffffffffffffffffffffffffffffffffffff168173ffffffffffffffffffffffffffffffffffffffff1614611d4c57611cfd600085600080612662565b6001600360008373ffffffffffffffffffffffffffffffffffffffff1673ffffffffffffffffffffffffffffffffffffffff168152602001908152602001600020600082825403925050819055505b600073ffffffffffffffffffffffffffffffffffffffff168573ffffffffffffffffffffffffffffffffffffffff1614611dcf576001600360008773ffffffffffffffffffffffffffffffffffffffff1673ffffffffffffffffffffffffffffffffffffffff168152602001908152602001600020600082825401925050819055505b846002600086815260200190815260200160002060006101000a81548173ffffffffffffffffffffffffffffffffffffffff021916908373ffffffffffffffffffffffffffffffffffffffff160217905550838573ffffffffffffffffffffffffffffffffffffffff168273ffffffffffffffffffffffffffffffffffffffff167fddf252ad1be2c89b69c2b068fc378daa952ba7f163c4a11628f55a4df523b3ef60405160405180910390a4809150509392505050565b6000611e938383611404565b611f6e5760016007600085815260200190815260200160002060000160008473ffffffffffffffffffffffffffffffffffffffff1673ffffffffffffffffffffffffffffffffffffffff16815260200190815260200160002060006101000a81548160ff021916908315150217905550611f0b611c3f565b73ffffffffffffffffffffffffffffffffffffffff168273ffffffffffffffffffffffffffffffffffffffff16847f2f8788117e7eff1d82e926ec794901d17c78024a50270940304540a733656f0d60405160405180910390a460019050611f73565b600090505b92915050565b6000611f858383611404565b156120615760006007600085815260200190815260200160002060000160008473ffffffffffffffffffffffffffffffffffffffff1673ffffffffffffffffffffffffffffffffffffffff16815260200190815260200160002060006101000a81548160ff021916908315150217905550611ffe611c3f565b73ffffffffffffffffffffffffffffffffffffffff168273ffffffffffffffffffffffffffffffffffffffff16847ff6391f5c32d9c69d2a47ea670b442974b53935d1edc7fd64eb21e047a839171b60405160405180910390a460019050612066565b600090505b92915050565b600061207b6000836000611c6d565b9050600073ffffffffffffffffffffffffffffffffffffffff168173ffffffffffffffffffffffffffffffffffffffff16036120ee57816040517f7e2732890000000000000000000000000000000000000000000000000000000081526004016120e591906131fc565b60405180910390fd5b5050565b6120fd84848461293c565b612111612108611c3f565b85858585612286565b50505050565b600073ffffffffffffffffffffffffffffffffffffffff168273ffffffffffffffffffffffffffffffffffffffff160361218857816040517f5b08ba1800000000000000000000000000000000000000000000000000000000815260040161217f919061330a565b60405180910390fd5b80600560008573ffffffffffffffffffffffffffffffffffffffff1673ffffffffffffffffffffffffffffffffffffffff16815260200190815260200160002060008473ffffffffffffffffffffffffffffffffffffffff1673ffffffffffffffffffffffffffffffffffffffff16815260200190815260200160002060006101000a81548160ff0219169083151502179055508173ffffffffffffffffffffffffffffffffffffffff168373ffffffffffffffffffffffffffffffffffffffff167f17307eab39ab6107e8899845ad3d59bd9653f200f220920489ca2b5937696c3183604051612279919061316f565b60405180910390a3505050565b60008373ffffffffffffffffffffffffffffffffffffffff163b1115612430578273ffffffffffffffffffffffffffffffffffffffff1663150b7a02868685856040518563ffffffff1660e01b81526004016122e59493929190614071565b6020604051808303816000875af192505050801561232157506040513d601f19601f8201168201806040525081019061231e91906140d2565b60015b6123a5573d8060008114612351576040519150601f19603f3d011682016040523d82523d6000602084013e612356565b606091505b50600081510361239d57836040517f64a0ae92000000000000000000000000000000000000000000000000000000008152600401612394919061330a565b60405180910390fd5b805181602001fd5b63150b7a0260e01b7bffffffffffffffffffffffffffffffffffffffffffffffffffffffff1916817bffffffffffffffffffffffffffffffffffffffffffffffffffffffff19161461242e57836040517f64a0ae92000000000000000000000000000000000000000000000000000000008152600401612425919061330a565b60405180910390fd5b505b5050505050565b606061244282611b7a565b50600060066000848152602001908152602001600020805461246390613a2a565b80601f016020809104026020016040519081016040528092919081815260200182805461248f90613a2a565b80156124dc5780601f106124b1576101008083540402835291602001916124dc565b820191906000526020600020905b8154815290600101906020018083116124bf57829003601f168201915b5050505050905060006124ed612aa9565b90506000815103612502578192505050612545565b60008251111561253757808260405160200161251f92919061413b565b60405160208183030381529060405292505050612545565b61254084612ac9565b925050505b919050565b612564828260405180602001604052806000815250612b32565b5050565b80600660008481526020019081526020016000209081612588919061430b565b507ff8e1a15aba9398e019f0b49df1a4fde98ee17ae345cb5f6b5e2c27f5033e8ce7826040516125b891906131fc565b60405180910390a15050565b6000634906490660e01b7bffffffffffffffffffffffffffffffffffffffffffffffffffffffff1916827bffffffffffffffffffffffffffffffffffffffffffffffffffffffff1916148061261e575061261d82612b56565b5b9050919050565b60006002600083815260200190815260200160002060009054906101000a900473ffffffffffffffffffffffffffffffffffffffff169050919050565b808061269b5750600073ffffffffffffffffffffffffffffffffffffffff168273ffffffffffffffffffffffffffffffffffffffff1614155b156127cf5760006126ab84611b7a565b9050600073ffffffffffffffffffffffffffffffffffffffff168373ffffffffffffffffffffffffffffffffffffffff161415801561271657508273ffffffffffffffffffffffffffffffffffffffff168173ffffffffffffffffffffffffffffffffffffffff1614155b80156127295750612727818461194a565b155b1561276b57826040517fa9fbf51f000000000000000000000000000000000000000000000000000000008152600401612762919061330a565b60405180910390fd5b81156127cd57838573ffffffffffffffffffffffffffffffffffffffff168273ffffffffffffffffffffffffffffffffffffffff167f8c5be1e5ebec7d5bd14f71427d1e84f3dd0314c0f7b2291e5b200ac8c7c3b92560405160405180910390a45b505b836004600085815260200190815260200160002060006101000a81548173ffffffffffffffffffffffffffffffffffffffff021916908373ffffffffffffffffffffffffffffffffffffffff16021790555050505050565b6128318282611404565b6128745780826040517fe2517d3f00000000000000000000000000000000000000000000000000000000815260040161286b9291906143dd565b60405180910390fd5b5050565b612883838383612c38565b61293757600073ffffffffffffffffffffffffffffffffffffffff168373ffffffffffffffffffffffffffffffffffffffff16036128f857806040517f7e2732890000000000000000000000000000000000000000000000000000000081526004016128ef91906131fc565b60405180910390fd5b81816040517f177e802f00000000000000000000000000000000000000000000000000000000815260040161292e929190614406565b60405180910390fd5b505050565b600073ffffffffffffffffffffffffffffffffffffffff168273ffffffffffffffffffffffffffffffffffffffff16036129ae5760006040517f64a0ae920000000000000000000000000000000000000000000000000000000081526004016129a5919061330a565b60405180910390fd5b60006129bc83836000611c6d565b9050600073ffffffffffffffffffffffffffffffffffffffff168173ffffffffffffffffffffffffffffffffffffffff1603612a2f57816040517f7e273289000000000000000000000000000000000000000000000000000000008152600401612a2691906131fc565b60405180910390fd5b8373ffffffffffffffffffffffffffffffffffffffff168173ffffffffffffffffffffffffffffffffffffffff1614612aa3578382826040517f64283d7b000000000000000000000000000000000000000000000000000000008152600401612a9a93929190613b5f565b60405180910390fd5b50505050565b60606040518060600160405280602e815260200161445f602e9139905090565b6060612ad482611b7a565b506000612adf612aa9565b90506000815111612aff5760405180602001604052806000815250612b2a565b80612b0984612cf9565b604051602001612b1a92919061413b565b6040516020818303038152906040525b915050919050565b612b3c8383612dc7565b612b51612b47611c3f565b6000858585612286565b505050565b60007f80ac58cd000000000000000000000000000000000000000000000000000000007bffffffffffffffffffffffffffffffffffffffffffffffffffffffff1916827bffffffffffffffffffffffffffffffffffffffffffffffffffffffff19161480612c2157507f5b5e139f000000000000000000000000000000000000000000000000000000007bffffffffffffffffffffffffffffffffffffffffffffffffffffffff1916827bffffffffffffffffffffffffffffffffffffffffffffffffffffffff1916145b80612c315750612c3082612ec0565b5b9050919050565b60008073ffffffffffffffffffffffffffffffffffffffff168373ffffffffffffffffffffffffffffffffffffffff1614158015612cf057508273ffffffffffffffffffffffffffffffffffffffff168473ffffffffffffffffffffffffffffffffffffffff161480612cb15750612cb0848461194a565b5b80612cef57508273ffffffffffffffffffffffffffffffffffffffff16612cd783611c02565b73ffffffffffffffffffffffffffffffffffffffff16145b5b90509392505050565b606060006001612d0884612f2a565b01905060008167ffffffffffffffff811115612d2757612d2661347b565b5b6040519080825280601f01601f191660200182016040528015612d595781602001600182028036833780820191505090505b509050600082602001820190505b600115612dbc578080600190039150507f3031323334353637383961626364656600000000000000000000000000000000600a86061a8153600a8581612db057612daf61442f565b5b04945060008503612d67575b819350505050919050565b600073ffffffffffffffffffffffffffffffffffffffff168273ffffffffffffffffffffffffffffffffffffffff1603612e395760006040517f64a0ae92000000000000000000000000000000000000000000000000000000008152600401612e30919061330a565b60405180910390fd5b6000612e4783836000611c6d565b9050600073ffffffffffffffffffffffffffffffffffffffff168173ffffffffffffffffffffffffffffffffffffffff1614612ebb5760006040517f73c6ac6e000000000000000000000000000000000000000000000000000000008152600401612eb2919061330a565b60405180910390fd5b505050565b60007f01ffc9a7000000000000000000000000000000000000000000000000000000007bffffffffffffffffffffffffffffffffffffffffffffffffffffffff1916827bffffffffffffffffffffffffffffffffffffffffffffffffffffffff1916149050919050565b600080600090507a184f03e93ff9f4daa797ed6e38ed64bf6a1f0100000000000000008310612f88577a184f03e93ff9f4daa797ed6e38ed64bf6a1f0100000000000000008381612f7e57612f7d61442f565b5b0492506040810190505b6d04ee2d6d415b85acef81000000008310612fc5576d04ee2d6d415b85acef81000000008381612fbb57612fba61442f565b5b0492506020810190505b662386f26fc100008310612ff457662386f26fc100008381612fea57612fe961442f565b5b0492506010810190505b6305f5e100831061301d576305f5e10083816130135761301261442f565b5b0492506008810190505b61271083106130425761271083816130385761303761442f565b5b0492506004810190505b60648310613065576064838161305b5761305a61442f565b5b0492506002810190505b600a8310613074576001810190505b80915050919050565b508054600082559060005260206000209081019061309b919061309e565b50565b5b808211156130b757600081600090555060010161309f565b5090565b6000604051905090565b600080fd5b600080fd5b60007fffffffff0000000000000000000000000000000000000000000000000000000082169050919050565b613104816130cf565b811461310f57600080fd5b50565b600081359050613121816130fb565b92915050565b60006020828403121561313d5761313c6130c5565b5b600061314b84828501613112565b91505092915050565b60008115159050919050565b61316981613154565b82525050565b60006020820190506131846000830184613160565b92915050565b6000819050919050565b61319d8161318a565b81146131a857600080fd5b50565b6000813590506131ba81613194565b92915050565b6000602082840312156131d6576131d56130c5565b5b60006131e4848285016131ab565b91505092915050565b6131f68161318a565b82525050565b600060208201905061321160008301846131ed565b92915050565b600081519050919050565b600082825260208201905092915050565b60005b83811015613251578082015181840152602081019050613236565b60008484015250505050565b6000601f19601f8301169050919050565b600061327982613217565b6132838185613222565b9350613293818560208601613233565b61329c8161325d565b840191505092915050565b600060208201905081810360008301526132c1818461326e565b905092915050565b600073ffffffffffffffffffffffffffffffffffffffff82169050919050565b60006132f4826132c9565b9050919050565b613304816132e9565b82525050565b600060208201905061331f60008301846132fb565b92915050565b61332e816132e9565b811461333957600080fd5b50565b60008135905061334b81613325565b92915050565b60008060408385031215613368576133676130c5565b5b60006133768582860161333c565b9250506020613387858286016131ab565b9150509250929050565b600081519050919050565b600082825260208201905092915050565b6000819050602082019050919050565b6133c68161318a565b82525050565b60006133d883836133bd565b60208301905092915050565b6000602082019050919050565b60006133fc82613391565b613406818561339c565b9350613411836133ad565b8060005b8381101561344257815161342988826133cc565b9750613434836133e4565b925050600181019050613415565b5085935050505092915050565b6000602082019050818103600083015261346981846133f1565b905092915050565b600080fd5b600080fd5b7f4e487b7100000000000000000000000000000000000000000000000000000000600052604160045260246000fd5b6134b38261325d565b810181811067ffffffffffffffff821117156134d2576134d161347b565b5b80604052505050565b60006134e56130bb565b90506134f182826134aa565b919050565b600067ffffffffffffffff8211156135115761351061347b565b5b61351a8261325d565b9050602081019050919050565b82818337600083830152505050565b6000613549613544846134f6565b6134db565b90508281526020810184848401111561356557613564613476565b5b613570848285613527565b509392505050565b600082601f83011261358d5761358c613471565b5b813561359d848260208601613536565b91505092915050565b600080604083850312156135bd576135bc6130c5565b5b60006135cb858286016131ab565b925050602083013567ffffffffffffffff8111156135ec576135eb6130ca565b5b6135f885828601613578565b9150509250929050565b60008060006060848603121561361b5761361a6130c5565b5b60006136298682870161333c565b935050602061363a8682870161333c565b925050604061364b868287016131ab565b9150509250925092565b6000819050919050565b61366881613655565b811461367357600080fd5b50565b6000813590506136858161365f565b92915050565b6000602082840312156136a1576136a06130c5565b5b60006136af84828501613676565b91505092915050565b6136c181613655565b82525050565b60006020820190506136dc60008301846136b8565b92915050565b600080604083850312156136f9576136f86130c5565b5b600061370785828601613676565b92505060206137188582860161333c565b9150509250929050565b600060208284031215613738576137376130c5565b5b60006137468482850161333c565b91505092915050565b60008060408385031215613766576137656130c5565b5b6000613774858286016131ab565b92505060206137858582860161333c565b9150509250929050565b600080604083850312156137a6576137a56130c5565b5b60006137b4858286016131ab565b92505060206137c5858286016131ab565b9150509250929050565b6137d881613154565b81146137e357600080fd5b50565b6000813590506137f5816137cf565b92915050565b60008060408385031215613812576138116130c5565b5b60006138208582860161333c565b9250506020613831858286016137e6565b9150509250929050565b600067ffffffffffffffff8211156138565761385561347b565b5b61385f8261325d565b9050602081019050919050565b600061387f61387a8461383b565b6134db565b90508281526020810184848401111561389b5761389a613476565b5b6138a6848285613527565b509392505050565b600082601f8301126138c3576138c2613471565b5b81356138d384826020860161386c565b91505092915050565b600080600080608085870312156138f6576138f56130c5565b5b60006139048782880161333c565b94505060206139158782880161333c565b9350506040613926878288016131ab565b925050606085013567ffffffffffffffff811115613947576139466130ca565b5b613953878288016138ae565b91505092959194509250565b60008060408385031215613976576139756130c5565b5b60006139848582860161333c565b92505060206139958582860161333c565b9150509250929050565b600080604083850312156139b6576139b56130c5565b5b60006139c48582860161333c565b925050602083013567ffffffffffffffff8111156139e5576139e46130ca565b5b6139f185828601613578565b9150509250929050565b7f4e487b7100000000000000000000000000000000000000000000000000000000600052602260045260246000fd5b60006002820490506001821680613a4257607f821691505b602082108103613a5557613a546139fb565b5b50919050565b7f43616c6c657220646f6573206e6f74206f776e2074686520737065636966696560008201527f6420636f6e74726f6c6c65720000000000000000000000000000000000000000602082015250565b6000613ab7602c83613222565b9150613ac282613a5b565b604082019050919050565b60006020820190508181036000830152613ae681613aaa565b9050919050565b6000604082019050613b0260008301856132fb565b8181036020830152613b14818461326e565b90509392505050565b600081519050613b2c81613194565b92915050565b600060208284031215613b4857613b476130c5565b5b6000613b5684828501613b1d565b91505092915050565b6000606082019050613b7460008301866132fb565b613b8160208301856131ed565b613b8e60408301846132fb565b949350505050565b7f4465766963654d616e6167657220616464726573732063616e6e6f742062652060008201527f7a65726f00000000000000000000000000000000000000000000000000000000602082015250565b6000613bf2602483613222565b9150613bfd82613b96565b604082019050919050565b60006020820190508181036000830152613c2181613be5565b9050919050565b7f43616c6c6572206d757374206265206120636f6e74726163742061646d696e2060008201527f6f7220616e20686f6d65206f776e657200000000000000000000000000000000602082015250565b6000613c84603083613222565b9150613c8f82613c28565b604082019050919050565b60006020820190508181036000830152613cb381613c77565b9050919050565b7f4e487b7100000000000000000000000000000000000000000000000000000000600052603260045260246000fd5b7f4e487b7100000000000000000000000000000000000000000000000000000000600052601160045260246000fd5b6000613d238261318a565b9150613d2e8361318a565b9250828203905081811115613d4657613d45613ce9565b5b92915050565b7f4e487b7100000000000000000000000000000000000000000000000000000000600052603160045260246000fd5b7f4e6577206f776e65722063616e6e6f7420626520746865207a65726f2061646460008201527f7265737300000000000000000000000000000000000000000000000000000000602082015250565b6000613dd7602483613222565b9150613de282613d7b565b604082019050919050565b60006020820190508181036000830152613e0681613dca565b9050919050565b7f43616c6c6572206d757374206861766520484f4d454f574e45525f524f4c452060008201527f616e64206f776e2074686520486f6d65436f6e74726f6c6c6572000000000000602082015250565b6000613e69603a83613222565b9150613e7482613e0d565b604082019050919050565b60006020820190508181036000830152613e9881613e5c565b9050919050565b6000606082019050613eb460008301866131ed565b613ec160208301856132fb565b613ece60408301846132fb565b949350505050565b7f4461746153686172696e6720616464726573732063616e6e6f74206265207a6560008201527f726f000000000000000000000000000000000000000000000000000000000000602082015250565b6000613f32602283613222565b9150613f3d82613ed6565b604082019050919050565b60006020820190508181036000830152613f6181613f25565b9050919050565b7f486f6d656f776e657220616464726573732063616e6e6f74206265207a65726f600082015250565b6000613f9e602083613222565b9150613fa982613f68565b602082019050919050565b60006020820190508181036000830152613fcd81613f91565b9050919050565b6000613fdf8261318a565b91507fffffffffffffffffffffffffffffffffffffffffffffffffffffffffffffffff820361401157614010613ce9565b5b600182019050919050565b600081519050919050565b600082825260208201905092915050565b60006140438261401c565b61404d8185614027565b935061405d818560208601613233565b6140668161325d565b840191505092915050565b600060808201905061408660008301876132fb565b61409360208301866132fb565b6140a060408301856131ed565b81810360608301526140b28184614038565b905095945050505050565b6000815190506140cc816130fb565b92915050565b6000602082840312156140e8576140e76130c5565b5b60006140f6848285016140bd565b91505092915050565b600081905092915050565b600061411582613217565b61411f81856140ff565b935061412f818560208601613233565b80840191505092915050565b6000614147828561410a565b9150614153828461410a565b91508190509392505050565b60008190508160005260206000209050919050565b60006020601f8301049050919050565b600082821b905092915050565b6000600883026141c17fffffffffffffffffffffffffffffffffffffffffffffffffffffffffffffffff82614184565b6141cb8683614184565b95508019841693508086168417925050509392505050565b6000819050919050565b60006142086142036141fe8461318a565b6141e3565b61318a565b9050919050565b6000819050919050565b614222836141ed565b61423661422e8261420f565b848454614191565b825550505050565b600090565b61424b61423e565b614256818484614219565b505050565b5b8181101561427a5761426f600082614243565b60018101905061425c565b5050565b601f8211156142bf576142908161415f565b61429984614174565b810160208510156142a8578190505b6142bc6142b485614174565b83018261425b565b50505b505050565b600082821c905092915050565b60006142e2600019846008026142c4565b1980831691505092915050565b60006142fb83836142d1565b9150826002028217905092915050565b61431482613217565b67ffffffffffffffff81111561432d5761432c61347b565b5b6143378254613a2a565b61434282828561427e565b600060209050601f8311600181146143755760008415614363578287015190505b61436d85826142ef565b8655506143d5565b601f1984166143838661415f565b60005b828110156143ab57848901518255600182019150602085019450602081019050614386565b868310156143c857848901516143c4601f8916826142d1565b8355505b6001600288020188555050505b505050505050565b60006040820190506143f260008301856132fb565b6143ff60208301846136b8565b9392505050565b600060408201905061441b60008301856132fb565b61442860208301846131ed565b9392505050565b7f4e487b7100000000000000000000000000000000000000000000000000000000600052601260045260246000fdfe68747470733a2f2f697066732e78686f6d656173736974616e7470726976617465697066732e6e6574776f726b2fa26469706673582212200850ffa537d4daf8e3c8cc1d1e7d8baaa14fea908622d912ae2b126d5f4a7c0a64736f6c634300081c0033",
  "linkReferences": {},
  "deployedLinkReferences": {}
}