{
  "_format": "hh-sol-artifact-1",
  "contractName": "DataAccessSubscriptionManager",
  "sourceName": "contracts/DataAccessSubscriptionManager.sol",
  "abi": [
    {
      "inputs": [],
      "stateMutability": "nonpayable",
      "type": "constructor"
    },
    {
      "inputs": [],
      "name": "AccessControlBadConfirmation",
      "type": "error"
    },
    {
      "inputs": [
        {
          "internalType": "address",
          "name": "account",
          "type": "address"
        },
        {
          "internalType": "bytes32",
          "name": "neededRole",
          "type": "bytes32"
        }
      ],
      "name": "AccessControlUnauthorizedAccount",
      "type": "error"
    },
    {
      "anonymous": false,
      "inputs": [
        {
          "indexed": true,
          "internalType": "bytes32",
          "name": "role",
          "type": "bytes32"
        },
        {
          "indexed": true,
          "internalType": "bytes32",
          "name": "previousAdminRole",
          "type": "bytes32"
        },
        {
          "indexed": true,
          "internalType": "bytes32",
          "name": "newAdminRole",
          "type": "bytes32"
        }
      ],
      "name": "RoleAdminChanged",
      "type": "event"
    },
    {
      "anonymous": false,
      "inputs": [
        {
          "indexed": true,
          "internalType": "bytes32",
          "name": "role",
          "type": "bytes32"
        },
        {
          "indexed": true,
          "internalType": "address",
          "name": "account",
          "type": "address"
        },
        {
          "indexed": true,
          "internalType": "address",
          "name": "sender",
          "type": "address"
        }
      ],
      "name": "RoleGranted",
      "type": "event"
    },
    {
      "anonymous": false,
      "inputs": [
        {
          "indexed": true,
          "internalType": "bytes32",
          "name": "role",
          "type": "bytes32"
        },
        {
          "indexed": true,
          "internalType": "address",
          "name": "account",
          "type": "address"
        },
        {
          "indexed": true,
          "internalType": "address",
          "name": "sender",
          "type": "address"
        }
      ],
      "name": "RoleRevoked",
      "type": "event"
    },
    {
      "inputs": [],
      "name": "ADMIN_ROLE",
      "outputs": [
        {
          "internalType": "bytes32",
          "name": "",
          "type": "bytes32"
        }
      ],
      "stateMutability": "view",
      "type": "function"
    },
    {
      "inputs": [],
      "name": "DEFAULT_ADMIN_ROLE",
      "outputs": [
        {
          "internalType": "bytes32",
          "name": "",
          "type": "bytes32"
        }
      ],
      "stateMutability": "view",
      "type": "function"
    },
    {
      "inputs": [],
      "name": "ENTERPRISE_USER_ROLE",
      "outputs": [
        {
          "internalType": "bytes32",
          "name": "",
          "type": "bytes32"
        }
      ],
      "stateMutability": "view",
      "type": "function"
    },
    {
      "inputs": [],
      "name": "REFUND_PERIOD",
      "outputs": [
        {
          "internalType": "uint256",
          "name": "",
          "type": "uint256"
        }
      ],
      "stateMutability": "view",
      "type": "function"
    },
    {
      "inputs": [],
      "name": "SUBSCRIPTION_DURATION",
      "outputs": [
        {
          "internalType": "uint256",
          "name": "",
          "type": "uint256"
        }
      ],
      "stateMutability": "view",
      "type": "function"
    },
    {
      "inputs": [
        {
          "internalType": "address",
          "name": "",
          "type": "address"
        }
      ],
      "name": "accessEndsOn",
      "outputs": [
        {
          "internalType": "uint256",
          "name": "",
          "type": "uint256"
        }
      ],
      "stateMutability": "view",
      "type": "function"
    },
    {
      "inputs": [],
      "name": "claimRefundAndUnsubscribe",
      "outputs": [],
      "stateMutability": "payable",
      "type": "function"
    },
    {
      "inputs": [],
      "name": "distributePayments",
      "outputs": [],
      "stateMutability": "nonpayable",
      "type": "function"
    },
    {
      "inputs": [],
      "name": "getBlockTimestamp",
      "outputs": [
        {
          "internalType": "uint256",
          "name": "",
          "type": "uint256"
        }
      ],
      "stateMutability": "view",
      "type": "function"
    },
    {
      "inputs": [],
      "name": "getContractBalance",
      "outputs": [
        {
          "internalType": "uint256",
          "name": "",
          "type": "uint256"
        }
      ],
      "stateMutability": "view",
      "type": "function"
    },
    {
      "inputs": [],
      "name": "getDataProvidersCount",
      "outputs": [
        {
          "internalType": "uint256",
          "name": "",
          "type": "uint256"
        }
      ],
      "stateMutability": "view",
      "type": "function"
    },
    {
      "inputs": [
        {
          "internalType": "bytes32",
          "name": "role",
          "type": "bytes32"
        }
      ],
      "name": "getRoleAdmin",
      "outputs": [
        {
          "internalType": "bytes32",
          "name": "",
          "type": "bytes32"
        }
      ],
      "stateMutability": "view",
      "type": "function"
    },
    {
      "inputs": [
        {
          "internalType": "bytes32",
          "name": "role",
          "type": "bytes32"
        },
        {
          "internalType": "address",
          "name": "account",
          "type": "address"
        }
      ],
      "name": "grantRole",
      "outputs": [],
      "stateMutability": "nonpayable",
      "type": "function"
    },
    {
      "inputs": [
        {
          "internalType": "address",
          "name": "enterpriseUserAddress",
          "type": "address"
        }
      ],
      "name": "hasAccess",
      "outputs": [
        {
          "internalType": "bool",
          "name": "",
          "type": "bool"
        }
      ],
      "stateMutability": "view",
      "type": "function"
    },
    {
      "inputs": [
        {
          "internalType": "bytes32",
          "name": "role",
          "type": "bytes32"
        },
        {
          "internalType": "address",
          "name": "account",
          "type": "address"
        }
      ],
      "name": "hasRole",
      "outputs": [
        {
          "internalType": "bool",
          "name": "",
          "type": "bool"
        }
      ],
      "stateMutability": "view",
      "type": "function"
    },
    {
      "inputs": [
        {
          "internalType": "uint256",
          "name": "",
          "type": "uint256"
        }
      ],
      "name": "homeControllerDataAccessStatus",
      "outputs": [
        {
          "internalType": "bool",
          "name": "",
          "type": "bool"
        }
      ],
      "stateMutability": "view",
      "type": "function"
    },
    {
      "inputs": [
        {
          "internalType": "bytes32",
          "name": "role",
          "type": "bytes32"
        },
        {
          "internalType": "address",
          "name": "callerConfirmation",
          "type": "address"
        }
      ],
      "name": "renounceRole",
      "outputs": [],
      "stateMutability": "nonpayable",
      "type": "function"
    },
    {
      "inputs": [
        {
          "internalType": "bytes32",
          "name": "role",
          "type": "bytes32"
        },
        {
          "internalType": "address",
          "name": "account",
          "type": "address"
        }
      ],
      "name": "revokeRole",
      "outputs": [],
      "stateMutability": "nonpayable",
      "type": "function"
    },
    {
      "inputs": [
        {
          "internalType": "address",
          "name": "controllerManagerContractAddress",
          "type": "address"
        }
      ],
      "name": "setControllerManagerContract",
      "outputs": [],
      "stateMutability": "nonpayable",
      "type": "function"
    },
    {
      "inputs": [
        {
          "internalType": "uint256",
          "name": "homeControllerTokenId",
          "type": "uint256"
        },
        {
          "internalType": "bool",
          "name": "isActive",
          "type": "bool"
        }
      ],
      "name": "setHomeDataAccessStatus",
      "outputs": [],
      "stateMutability": "nonpayable",
      "type": "function"
    },
    {
      "inputs": [
        {
          "internalType": "uint256",
          "name": "price",
          "type": "uint256"
        }
      ],
      "name": "setSubscriptionPrice",
      "outputs": [],
      "stateMutability": "nonpayable",
      "type": "function"
    },
    {
      "inputs": [],
      "name": "subscribe",
      "outputs": [],
      "stateMutability": "payable",
      "type": "function"
    },
    {
      "inputs": [],
      "name": "subscriptionCost",
      "outputs": [
        {
          "internalType": "uint256",
          "name": "",
          "type": "uint256"
        }
      ],
      "stateMutability": "view",
      "type": "function"
    },
    {
      "inputs": [
        {
          "internalType": "address",
          "name": "enterpriseUserAddress",
          "type": "address"
        }
      ],
      "name": "subscriptionTimeRemaining",
      "outputs": [
        {
          "internalType": "uint256",
          "name": "",
          "type": "uint256"
        }
      ],
      "stateMutability": "view",
      "type": "function"
    },
    {
      "inputs": [
        {
          "internalType": "bytes4",
          "name": "interfaceId",
          "type": "bytes4"
        }
      ],
      "name": "supportsInterface",
      "outputs": [
        {
          "internalType": "bool",
          "name": "",
          "type": "bool"
        }
      ],
      "stateMutability": "view",
      "type": "function"
    },
    {
      "inputs": [],
      "name": "unsubscribe",
      "outputs": [],
      "stateMutability": "nonpayable",
      "type": "function"
    }
  ],
  "bytecode": "0x608060405266470de4df82000060015534801561001b57600080fd5b5061004c7fa49807205ce4d355092ef5a8a18f56e8913cf4a201fbe287825b095693c217753361005260201b60201c565b506101c1565b6000610064838361014f60201b60201c565b61014457600160008085815260200190815260200160002060000160008473ffffffffffffffffffffffffffffffffffffffff1673ffffffffffffffffffffffffffffffffffffffff16815260200190815260200160002060006101000a81548160ff0219169083151502179055506100e16101b960201b60201c565b73ffffffffffffffffffffffffffffffffffffffff168273ffffffffffffffffffffffffffffffffffffffff16847f2f8788117e7eff1d82e926ec794901d17c78024a50270940304540a733656f0d60405160405180910390a460019050610149565b600090505b92915050565b600080600084815260200190815260200160002060000160008373ffffffffffffffffffffffffffffffffffffffff1673ffffffffffffffffffffffffffffffffffffffff16815260200190815260200160002060009054906101000a900460ff16905092915050565b600033905090565b611fda806101d06000396000f3fe6080604052600436106101815760003560e01c80637dd39fa7116100d157806395a078e81161008a578063dd84b5f611610064578063dd84b5f614610556578063e967e2a11461056d578063f6847c82146105aa578063fcae4484146105d557610181565b806395a078e8146104c5578063a217fddf14610502578063d547741f1461052d57610181565b80637dd39fa7146103d45780637f6578d3146103ff5780638f449a051461042a578063903f875a1461043457806391d148541461045f5780639453c7641461049c57610181565b806336568abe1161013e57806360d0421c1161011857806360d0421c1461032a5780636f9fb98a1461035357806375b238fc1461037e578063796b89b9146103a957610181565b806336568abe146102ba57806347c1c3ac146102e35780634901c1d91461032057610181565b806301ffc9a7146101865780631a5ee779146101c3578063248a9ca3146101ec57806326b8321a146102295780632f2ff15d146102545780633188baae1461027d575b600080fd5b34801561019257600080fd5b506101ad60048036038101906101a891906117b9565b6105ec565b6040516101ba9190611801565b60405180910390f35b3480156101cf57600080fd5b506101ea60048036038101906101e59190611852565b610666565b005b3480156101f857600080fd5b50610213600480360381019061020e91906118b5565b61069b565b60405161022091906118f1565b60405180910390f35b34801561023557600080fd5b5061023e6106ba565b60405161024b919061191b565b60405180910390f35b34801561026057600080fd5b5061027b60048036038101906102769190611994565b6106c7565b005b34801561028957600080fd5b506102a4600480360381019061029f9190611852565b6106e9565b6040516102b19190611801565b60405180910390f35b3480156102c657600080fd5b506102e160048036038101906102dc9190611994565b610709565b005b3480156102ef57600080fd5b5061030a600480360381019061030591906119d4565b610784565b604051610317919061191b565b60405180910390f35b610328610829565b005b34801561033657600080fd5b50610351600480360381019061034c9190611a2d565b610a6b565b005b34801561035f57600080fd5b50610368610c29565b604051610375919061191b565b60405180910390f35b34801561038a57600080fd5b50610393610c5c565b6040516103a091906118f1565b60405180910390f35b3480156103b557600080fd5b506103be610c80565b6040516103cb919061191b565b60405180910390f35b3480156103e057600080fd5b506103e9610cb3565b6040516103f6919061191b565b60405180910390f35b34801561040b57600080fd5b50610414610cb9565b604051610421919061191b565b60405180910390f35b610432610cc0565b005b34801561044057600080fd5b50610449610e58565b60405161045691906118f1565b60405180910390f35b34801561046b57600080fd5b5061048660048036038101906104819190611994565b610e7c565b6040516104939190611801565b60405180910390f35b3480156104a857600080fd5b506104c360048036038101906104be91906119d4565b610ee6565b005b3480156104d157600080fd5b506104ec60048036038101906104e791906119d4565b610f55565b6040516104f99190611801565b60405180910390f35b34801561050e57600080fd5b50610517610fa1565b60405161052491906118f1565b60405180910390f35b34801561053957600080fd5b50610554600480360381019061054f9190611994565b610fa8565b005b34801561056257600080fd5b5061056b610fca565b005b34801561057957600080fd5b50610594600480360381019061058f91906119d4565b611141565b6040516105a1919061191b565b60405180910390f35b3480156105b657600080fd5b506105bf611159565b6040516105cc919061191b565b60405180910390f35b3480156105e157600080fd5b506105ea611160565b005b60007f7965db0b000000000000000000000000000000000000000000000000000000007bffffffffffffffffffffffffffffffffffffffffffffffffffffffff1916827bffffffffffffffffffffffffffffffffffffffffffffffffffffffff1916148061065f575061065e82611270565b5b9050919050565b7fa49807205ce4d355092ef5a8a18f56e8913cf4a201fbe287825b095693c21775610690816112da565b816001819055505050565b6000806000838152602001908152602001600020600101549050919050565b6000600480549050905090565b6106d08261069b565b6106d9816112da565b6106e383836112ee565b50505050565b60036020528060005260406000206000915054906101000a900460ff1681565b6107116113df565b73ffffffffffffffffffffffffffffffffffffffff168173ffffffffffffffffffffffffffffffffffffffff1614610775576040517f6697b23200000000000000000000000000000000000000000000000000000000815260040160405180910390fd5b61077f82826113e7565b505050565b6000600560008373ffffffffffffffffffffffffffffffffffffffff1673ffffffffffffffffffffffffffffffffffffffff168152602001908152602001600020544211156107d65760009050610824565b42600560008473ffffffffffffffffffffffffffffffffffffffff1673ffffffffffffffffffffffffffffffffffffffff168152602001908152602001600020546108219190611a9c565b90505b919050565b7ff39b5e249d1c77169c0c7fca9f9d103c224937e009bdc18e249b6a345e6606a2610853816112da565b3073ffffffffffffffffffffffffffffffffffffffff166395a078e8336040518263ffffffff1660e01b815260040161088c9190611adf565b602060405180830381865afa1580156108a9573d6000803e3d6000fd5b505050506040513d601f19601f820116820180604052508101906108cd9190611b0f565b61090c576040517f08c379a000000000000000000000000000000000000000000000000000000000815260040161090390611bbf565b60405180910390fd5b6000600560003373ffffffffffffffffffffffffffffffffffffffff1673ffffffffffffffffffffffffffffffffffffffff1681526020019081526020016000205490508062278d006276a7006109639190611a9c565b4261096e9190611bdf565b11156109af576040517f08c379a00000000000000000000000000000000000000000000000000000000081526004016109a690611c5f565b60405180910390fd5b6000600560003373ffffffffffffffffffffffffffffffffffffffff1673ffffffffffffffffffffffffffffffffffffffff168152602001908152602001600020819055503373ffffffffffffffffffffffffffffffffffffffff166108fc6001549081150290604051600060405180830381858888f19350505050158015610a3c573d6000803e3d6000fd5b50610a677ff39b5e249d1c77169c0c7fca9f9d103c224937e009bdc18e249b6a345e6606a233610fa8565b5050565b3373ffffffffffffffffffffffffffffffffffffffff16600260009054906101000a900473ffffffffffffffffffffffffffffffffffffffff1673ffffffffffffffffffffffffffffffffffffffff16636352211e846040518263ffffffff1660e01b8152600401610add919061191b565b602060405180830381865afa158015610afa573d6000803e3d6000fd5b505050506040513d601f19601f82011682018060405250810190610b1e9190611c94565b73ffffffffffffffffffffffffffffffffffffffff1614610b74576040517f08c379a0000000000000000000000000000000000000000000000000000000008152600401610b6b90611d33565b60405180910390fd5b806003600084815260200190815260200160002060006101000a81548160ff0219169083151502179055508015610c1b57610bae336114d9565b610c16576004339080600181540180825580915050600190039060005260206000200160009091909190916101000a81548173ffffffffffffffffffffffffffffffffffffffff021916908373ffffffffffffffffffffffffffffffffffffffff1602179055505b610c25565b610c2433611581565b5b5050565b60007fa49807205ce4d355092ef5a8a18f56e8913cf4a201fbe287825b095693c21775610c55816112da565b4791505090565b7fa49807205ce4d355092ef5a8a18f56e8913cf4a201fbe287825b095693c2177581565b60007fa49807205ce4d355092ef5a8a18f56e8913cf4a201fbe287825b095693c21775610cac816112da565b4291505090565b60015481565b62278d0081565b6001543414610d04576040517f08c379a0000000000000000000000000000000000000000000000000000000008152600401610cfb90611d9f565b60405180910390fd5b600560003373ffffffffffffffffffffffffffffffffffffffff1673ffffffffffffffffffffffffffffffffffffffff16815260200190815260200160002054421015610da9576276a700600560003373ffffffffffffffffffffffffffffffffffffffff1673ffffffffffffffffffffffffffffffffffffffff1681526020019081526020016000206000828254610d9d9190611bdf565b92505081905550610dfc565b6276a70042610db89190611bdf565b600560003373ffffffffffffffffffffffffffffffffffffffff1673ffffffffffffffffffffffffffffffffffffffff168152602001908152602001600020819055505b610e267ff39b5e249d1c77169c0c7fca9f9d103c224937e009bdc18e249b6a345e6606a233610e7c565b610e5657610e547ff39b5e249d1c77169c0c7fca9f9d103c224937e009bdc18e249b6a345e6606a2336112ee565b505b565b7ff39b5e249d1c77169c0c7fca9f9d103c224937e009bdc18e249b6a345e6606a281565b600080600084815260200190815260200160002060000160008373ffffffffffffffffffffffffffffffffffffffff1673ffffffffffffffffffffffffffffffffffffffff16815260200190815260200160002060009054906101000a900460ff16905092915050565b7fa49807205ce4d355092ef5a8a18f56e8913cf4a201fbe287825b095693c21775610f10816112da565b81600260006101000a81548173ffffffffffffffffffffffffffffffffffffffff021916908373ffffffffffffffffffffffffffffffffffffffff1602179055505050565b6000600560008373ffffffffffffffffffffffffffffffffffffffff1673ffffffffffffffffffffffffffffffffffffffff168152602001908152602001600020544211159050919050565b6000801b81565b610fb18261069b565b610fba816112da565b610fc483836113e7565b50505050565b7fa49807205ce4d355092ef5a8a18f56e8913cf4a201fbe287825b095693c21775610ff4816112da565b60006004805490501161103c576040517f08c379a000000000000000000000000000000000000000000000000000000000815260040161103390611e31565b60405180910390fd5b600047905060008111611084576040517f08c379a000000000000000000000000000000000000000000000000000000000815260040161107b90611e9d565b60405180910390fd5b6000600480549050826110979190611eec565b905060005b60048054905081101561113b57600481815481106110bd576110bc611f1d565b5b9060005260206000200160009054906101000a900473ffffffffffffffffffffffffffffffffffffffff1673ffffffffffffffffffffffffffffffffffffffff166108fc839081150290604051600060405180830381858888f1935050505015801561112d573d6000803e3d6000fd5b50808060010191505061109c565b50505050565b60056020528060005260406000206000915090505481565b6276a70081565b7ff39b5e249d1c77169c0c7fca9f9d103c224937e009bdc18e249b6a345e6606a261118a816112da565b3073ffffffffffffffffffffffffffffffffffffffff166395a078e8336040518263ffffffff1660e01b81526004016111c39190611adf565b602060405180830381865afa1580156111e0573d6000803e3d6000fd5b505050506040513d601f19601f820116820180604052508101906112049190611b0f565b611243576040517f08c379a000000000000000000000000000000000000000000000000000000000815260040161123a90611bbf565b60405180910390fd5b61126d7ff39b5e249d1c77169c0c7fca9f9d103c224937e009bdc18e249b6a345e6606a233610fa8565b50565b60007f01ffc9a7000000000000000000000000000000000000000000000000000000007bffffffffffffffffffffffffffffffffffffffffffffffffffffffff1916827bffffffffffffffffffffffffffffffffffffffffffffffffffffffff1916149050919050565b6112eb816112e66113df565b61170b565b50565b60006112fa8383610e7c565b6113d457600160008085815260200190815260200160002060000160008473ffffffffffffffffffffffffffffffffffffffff1673ffffffffffffffffffffffffffffffffffffffff16815260200190815260200160002060006101000a81548160ff0219169083151502179055506113716113df565b73ffffffffffffffffffffffffffffffffffffffff168273ffffffffffffffffffffffffffffffffffffffff16847f2f8788117e7eff1d82e926ec794901d17c78024a50270940304540a733656f0d60405160405180910390a4600190506113d9565b600090505b92915050565b600033905090565b60006113f38383610e7c565b156114ce57600080600085815260200190815260200160002060000160008473ffffffffffffffffffffffffffffffffffffffff1673ffffffffffffffffffffffffffffffffffffffff16815260200190815260200160002060006101000a81548160ff02191690831515021790555061146b6113df565b73ffffffffffffffffffffffffffffffffffffffff168273ffffffffffffffffffffffffffffffffffffffff16847ff6391f5c32d9c69d2a47ea670b442974b53935d1edc7fd64eb21e047a839171b60405160405180910390a4600190506114d3565b600090505b92915050565b600080600090505b600480549050811015611576578273ffffffffffffffffffffffffffffffffffffffff166004828154811061151957611518611f1d565b5b9060005260206000200160009054906101000a900473ffffffffffffffffffffffffffffffffffffffff1673ffffffffffffffffffffffffffffffffffffffff160361156957600191505061157c565b80806001019150506114e1565b50600090505b919050565b60005b600480549050811015611707578173ffffffffffffffffffffffffffffffffffffffff16600482815481106115bc576115bb611f1d565b5b9060005260206000200160009054906101000a900473ffffffffffffffffffffffffffffffffffffffff1673ffffffffffffffffffffffffffffffffffffffff16036116fa57600460016004805490506116169190611a9c565b8154811061162757611626611f1d565b5b9060005260206000200160009054906101000a900473ffffffffffffffffffffffffffffffffffffffff166004828154811061166657611665611f1d565b5b9060005260206000200160006101000a81548173ffffffffffffffffffffffffffffffffffffffff021916908373ffffffffffffffffffffffffffffffffffffffff16021790555060048054806116c0576116bf611f4c565b5b6001900381819060005260206000200160006101000a81549073ffffffffffffffffffffffffffffffffffffffff02191690559055611707565b8080600101915050611584565b5050565b6117158282610e7c565b6117585780826040517fe2517d3f00000000000000000000000000000000000000000000000000000000815260040161174f929190611f7b565b60405180910390fd5b5050565b600080fd5b60007fffffffff0000000000000000000000000000000000000000000000000000000082169050919050565b61179681611761565b81146117a157600080fd5b50565b6000813590506117b38161178d565b92915050565b6000602082840312156117cf576117ce61175c565b5b60006117dd848285016117a4565b91505092915050565b60008115159050919050565b6117fb816117e6565b82525050565b600060208201905061181660008301846117f2565b92915050565b6000819050919050565b61182f8161181c565b811461183a57600080fd5b50565b60008135905061184c81611826565b92915050565b6000602082840312156118685761186761175c565b5b60006118768482850161183d565b91505092915050565b6000819050919050565b6118928161187f565b811461189d57600080fd5b50565b6000813590506118af81611889565b92915050565b6000602082840312156118cb576118ca61175c565b5b60006118d9848285016118a0565b91505092915050565b6118eb8161187f565b82525050565b600060208201905061190660008301846118e2565b92915050565b6119158161181c565b82525050565b6000602082019050611930600083018461190c565b92915050565b600073ffffffffffffffffffffffffffffffffffffffff82169050919050565b600061196182611936565b9050919050565b61197181611956565b811461197c57600080fd5b50565b60008135905061198e81611968565b92915050565b600080604083850312156119ab576119aa61175c565b5b60006119b9858286016118a0565b92505060206119ca8582860161197f565b9150509250929050565b6000602082840312156119ea576119e961175c565b5b60006119f88482850161197f565b91505092915050565b611a0a816117e6565b8114611a1557600080fd5b50565b600081359050611a2781611a01565b92915050565b60008060408385031215611a4457611a4361175c565b5b6000611a528582860161183d565b9250506020611a6385828601611a18565b9150509250929050565b7f4e487b7100000000000000000000000000000000000000000000000000000000600052601160045260246000fd5b6000611aa78261181c565b9150611ab28361181c565b9250828203905081811115611aca57611ac9611a6d565b5b92915050565b611ad981611956565b82525050565b6000602082019050611af46000830184611ad0565b92915050565b600081519050611b0981611a01565b92915050565b600060208284031215611b2557611b2461175c565b5b6000611b3384828501611afa565b91505092915050565b600082825260208201905092915050565b7f43616e6e6f7420756e7375627363726962652c206e6f2061637469766520737560008201527f62736372697074696f6e00000000000000000000000000000000000000000000602082015250565b6000611ba9602a83611b3c565b9150611bb482611b4d565b604082019050919050565b60006020820190508181036000830152611bd881611b9c565b9050919050565b6000611bea8261181c565b9150611bf58361181c565b9250828201905080821115611c0d57611c0c611a6d565b5b92915050565b7f526566756e64206e6f7420656c696769626c6500000000000000000000000000600082015250565b6000611c49601383611b3c565b9150611c5482611c13565b602082019050919050565b60006020820190508181036000830152611c7881611c3c565b9050919050565b600081519050611c8e81611968565b92915050565b600060208284031215611caa57611ca961175c565b5b6000611cb884828501611c7f565b91505092915050565b7f4f6e6c792074686520686f6d6520636f6e74726f6c6c6572206f776e6572206360008201527f616e207570646174652064617461206163636573732073746174757300000000602082015250565b6000611d1d603c83611b3c565b9150611d2882611cc1565b604082019050919050565b60006020820190508181036000830152611d4c81611d10565b9050919050565b7f496e636f72726563742045544820616d6f756e742073656e7400000000000000600082015250565b6000611d89601983611b3c565b9150611d9482611d53565b602082019050919050565b60006020820190508181036000830152611db881611d7c565b9050919050565b7f4e6f2070726f76696465727320746f2064697374726962757465207061796d6560008201527f6e747320746f0000000000000000000000000000000000000000000000000000602082015250565b6000611e1b602683611b3c565b9150611e2682611dbf565b604082019050919050565b60006020820190508181036000830152611e4a81611e0e565b9050919050565b7f4e6f2066756e647320746f206469737472696275746500000000000000000000600082015250565b6000611e87601683611b3c565b9150611e9282611e51565b602082019050919050565b60006020820190508181036000830152611eb681611e7a565b9050919050565b7f4e487b7100000000000000000000000000000000000000000000000000000000600052601260045260246000fd5b6000611ef78261181c565b9150611f028361181c565b925082611f1257611f11611ebd565b5b828204905092915050565b7f4e487b7100000000000000000000000000000000000000000000000000000000600052603260045260246000fd5b7f4e487b7100000000000000000000000000000000000000000000000000000000600052603160045260246000fd5b6000604082019050611f906000830185611ad0565b611f9d60208301846118e2565b939250505056fea2646970667358221220f13764a71b94f2af475affd00ea15ea535a13e77715b3fb4c779d369700f1c8064736f6c634300081c0033",
  "linkReferences": {},
  "deployedLinkReferences": {}
}