{
  "_format": "hh-sol-artifact-1",
  "contractName": "DeviceManager",
  "sourceName": "contracts/DeviceManager.sol",
  "abi": [
    {
      "inputs": [],
      "stateMutability": "nonpayable",
      "type": "constructor"
    },
    {
      "inputs": [
        {
          "internalType": "address",
          "name": "sender",
          "type": "address"
        },
        {
          "internalType": "uint256",
          "name": "tokenId",
          "type": "uint256"
        },
        {
          "internalType": "address",
          "name": "owner",
          "type": "address"
        }
      ],
      "name": "ERC721IncorrectOwner",
      "type": "error"
    },
    {
      "inputs": [
        {
          "internalType": "address",
          "name": "operator",
          "type": "address"
        },
        {
          "internalType": "uint256",
          "name": "tokenId",
          "type": "uint256"
        }
      ],
      "name": "ERC721InsufficientApproval",
      "type": "error"
    },
    {
      "inputs": [
        {
          "internalType": "address",
          "name": "approver",
          "type": "address"
        }
      ],
      "name": "ERC721InvalidApprover",
      "type": "error"
    },
    {
      "inputs": [
        {
          "internalType": "address",
          "name": "operator",
          "type": "address"
        }
      ],
      "name": "ERC721InvalidOperator",
      "type": "error"
    },
    {
      "inputs": [
        {
          "internalType": "address",
          "name": "owner",
          "type": "address"
        }
      ],
      "name": "ERC721InvalidOwner",
      "type": "error"
    },
    {
      "inputs": [
        {
          "internalType": "address",
          "name": "receiver",
          "type": "address"
        }
      ],
      "name": "ERC721InvalidReceiver",
      "type": "error"
    },
    {
      "inputs": [
        {
          "internalType": "address",
          "name": "sender",
          "type": "address"
        }
      ],
      "name": "ERC721InvalidSender",
      "type": "error"
    },
    {
      "inputs": [
        {
          "internalType": "uint256",
          "name": "tokenId",
          "type": "uint256"
        }
      ],
      "name": "ERC721NonexistentToken",
      "type": "error"
    },
    {
      "anonymous": false,
      "inputs": [
        {
          "indexed": true,
          "internalType": "address",
          "name": "owner",
          "type": "address"
        },
        {
          "indexed": true,
          "internalType": "address",
          "name": "approved",
          "type": "address"
        },
        {
          "indexed": true,
          "internalType": "uint256",
          "name": "tokenId",
          "type": "uint256"
        }
      ],
      "name": "Approval",
      "type": "event"
    },
    {
      "anonymous": false,
      "inputs": [
        {
          "indexed": true,
          "internalType": "address",
          "name": "owner",
          "type": "address"
        },
        {
          "indexed": true,
          "internalType": "address",
          "name": "operator",
          "type": "address"
        },
        {
          "indexed": false,
          "internalType": "bool",
          "name": "approved",
          "type": "bool"
        }
      ],
      "name": "ApprovalForAll",
      "type": "event"
    },
    {
      "anonymous": false,
      "inputs": [
        {
          "indexed": false,
          "internalType": "uint256",
          "name": "_fromTokenId",
          "type": "uint256"
        },
        {
          "indexed": false,
          "internalType": "uint256",
          "name": "_toTokenId",
          "type": "uint256"
        }
      ],
      "name": "BatchMetadataUpdate",
      "type": "event"
    },
    {
      "anonymous": false,
      "inputs": [
        {
          "indexed": false,
          "internalType": "uint256",
          "name": "_tokenId",
          "type": "uint256"
        }
      ],
      "name": "MetadataUpdate",
      "type": "event"
    },
    {
      "anonymous": false,
      "inputs": [
        {
          "indexed": true,
          "internalType": "address",
          "name": "from",
          "type": "address"
        },
        {
          "indexed": true,
          "internalType": "address",
          "name": "to",
          "type": "address"
        },
        {
          "indexed": true,
          "internalType": "uint256",
          "name": "tokenId",
          "type": "uint256"
        }
      ],
      "name": "Transfer",
      "type": "event"
    },
    {
      "inputs": [
        {
          "internalType": "address",
          "name": "recipient",
          "type": "address"
        },
        {
          "internalType": "string",
          "name": "metadataURI",
          "type": "string"
        }
      ],
      "name": "addDevice",
      "outputs": [
        {
          "internalType": "uint256",
          "name": "tokenId",
          "type": "uint256"
        }
      ],
      "stateMutability": "nonpayable",
      "type": "function"
    },
    {
      "inputs": [],
      "name": "admin",
      "outputs": [
        {
          "internalType": "address",
          "name": "",
          "type": "address"
        }
      ],
      "stateMutability": "view",
      "type": "function"
    },
    {
      "inputs": [
        {
          "internalType": "address",
          "name": "to",
          "type": "address"
        },
        {
          "internalType": "uint256",
          "name": "tokenId",
          "type": "uint256"
        }
      ],
      "name": "approve",
      "outputs": [],
      "stateMutability": "nonpayable",
      "type": "function"
    },
    {
      "inputs": [
        {
          "internalType": "address",
          "name": "owner",
          "type": "address"
        }
      ],
      "name": "balanceOf",
      "outputs": [
        {
          "internalType": "uint256",
          "name": "",
          "type": "uint256"
        }
      ],
      "stateMutability": "view",
      "type": "function"
    },
    {
      "inputs": [
        {
          "internalType": "uint256",
          "name": "tokenId",
          "type": "uint256"
        }
      ],
      "name": "getApproved",
      "outputs": [
        {
          "internalType": "address",
          "name": "",
          "type": "address"
        }
      ],
      "stateMutability": "view",
      "type": "function"
    },
    {
      "inputs": [
        {
          "internalType": "address",
          "name": "owner",
          "type": "address"
        },
        {
          "internalType": "address",
          "name": "operator",
          "type": "address"
        }
      ],
      "name": "isApprovedForAll",
      "outputs": [
        {
          "internalType": "bool",
          "name": "",
          "type": "bool"
        }
      ],
      "stateMutability": "view",
      "type": "function"
    },
    {
      "inputs": [],
      "name": "name",
      "outputs": [
        {
          "internalType": "string",
          "name": "",
          "type": "string"
        }
      ],
      "stateMutability": "view",
      "type": "function"
    },
    {
      "inputs": [
        {
          "internalType": "uint256",
          "name": "tokenId",
          "type": "uint256"
        }
      ],
      "name": "ownerOf",
      "outputs": [
        {
          "internalType": "address",
          "name": "",
          "type": "address"
        }
      ],
      "stateMutability": "view",
      "type": "function"
    },
    {
      "inputs": [
        {
          "internalType": "uint256",
          "name": "tokenId",
          "type": "uint256"
        }
      ],
      "name": "removeDevice",
      "outputs": [],
      "stateMutability": "nonpayable",
      "type": "function"
    },
    {
      "inputs": [
        {
          "internalType": "address",
          "name": "from",
          "type": "address"
        },
        {
          "internalType": "address",
          "name": "to",
          "type": "address"
        },
        {
          "internalType": "uint256",
          "name": "tokenId",
          "type": "uint256"
        }
      ],
      "name": "safeTransferFrom",
      "outputs": [],
      "stateMutability": "nonpayable",
      "type": "function"
    },
    {
      "inputs": [
        {
          "internalType": "address",
          "name": "from",
          "type": "address"
        },
        {
          "internalType": "address",
          "name": "to",
          "type": "address"
        },
        {
          "internalType": "uint256",
          "name": "tokenId",
          "type": "uint256"
        },
        {
          "internalType": "bytes",
          "name": "data",
          "type": "bytes"
        }
      ],
      "name": "safeTransferFrom",
      "outputs": [],
      "stateMutability": "nonpayable",
      "type": "function"
    },
    {
      "inputs": [
        {
          "internalType": "address",
          "name": "operator",
          "type": "address"
        },
        {
          "internalType": "bool",
          "name": "approved",
          "type": "bool"
        }
      ],
      "name": "setApprovalForAll",
      "outputs": [],
      "stateMutability": "nonpayable",
      "type": "function"
    },
    {
      "inputs": [
        {
          "internalType": "address",
          "name": "controllerManagerAddress",
          "type": "address"
        }
      ],
      "name": "setControllerManagerAddress",
      "outputs": [],
      "stateMutability": "nonpayable",
      "type": "function"
    },
    {
      "inputs": [
        {
          "internalType": "bytes4",
          "name": "interfaceId",
          "type": "bytes4"
        }
      ],
      "name": "supportsInterface",
      "outputs": [
        {
          "internalType": "bool",
          "name": "",
          "type": "bool"
        }
      ],
      "stateMutability": "view",
      "type": "function"
    },
    {
      "inputs": [],
      "name": "symbol",
      "outputs": [
        {
          "internalType": "string",
          "name": "",
          "type": "string"
        }
      ],
      "stateMutability": "view",
      "type": "function"
    },
    {
      "inputs": [
        {
          "internalType": "uint256",
          "name": "tokenId",
          "type": "uint256"
        }
      ],
      "name": "tokenURI",
      "outputs": [
        {
          "internalType": "string",
          "name": "",
          "type": "string"
        }
      ],
      "stateMutability": "view",
      "type": "function"
    },
    {
      "inputs": [
        {
          "internalType": "uint256",
          "name": "deviceTokenId",
          "type": "uint256"
        },
        {
          "internalType": "address",
          "name": "owner",
          "type": "address"
        },
        {
          "internalType": "address",
          "name": "newOwner",
          "type": "address"
        }
      ],
      "name": "transferDeviceOwnership",
      "outputs": [],
      "stateMutability": "nonpayable",
      "type": "function"
    },
    {
      "inputs": [
        {
          "internalType": "address",
          "name": "from",
          "type": "address"
        },
        {
          "internalType": "address",
          "name": "to",
          "type": "address"
        },
        {
          "internalType": "uint256",
          "name": "tokenId",
          "type": "uint256"
        }
      ],
      "name": "transferFrom",
      "outputs": [],
      "stateMutability": "nonpayable",
      "type": "function"
    }
  ],
  "bytecode": "0x6080604052600160085534801561001557600080fd5b506040518060400160405280600d81526020017f4465766963654d616e61676572000000000000000000000000000000000000008152506040518060400160405280600281526020017f444d0000000000000000000000000000000000000000000000000000000000008152508160009081610091919061033a565b5080600190816100a1919061033a565b50505033600760006101000a81548173ffffffffffffffffffffffffffffffffffffffff021916908373ffffffffffffffffffffffffffffffffffffffff16021790555061040c565b600081519050919050565b7f4e487b7100000000000000000000000000000000000000000000000000000000600052604160045260246000fd5b7f4e487b7100000000000000000000000000000000000000000000000000000000600052602260045260246000fd5b6000600282049050600182168061016b57607f821691505b60208210810361017e5761017d610124565b5b50919050565b60008190508160005260206000209050919050565b60006020601f8301049050919050565b600082821b905092915050565b6000600883026101e67fffffffffffffffffffffffffffffffffffffffffffffffffffffffffffffffff826101a9565b6101f086836101a9565b95508019841693508086168417925050509392505050565b6000819050919050565b6000819050919050565b600061023761023261022d84610208565b610212565b610208565b9050919050565b6000819050919050565b6102518361021c565b61026561025d8261023e565b8484546101b6565b825550505050565b600090565b61027a61026d565b610285818484610248565b505050565b5b818110156102a95761029e600082610272565b60018101905061028b565b5050565b601f8211156102ee576102bf81610184565b6102c884610199565b810160208510156102d7578190505b6102eb6102e385610199565b83018261028a565b50505b505050565b600082821c905092915050565b6000610311600019846008026102f3565b1980831691505092915050565b600061032a8383610300565b9150826002028217905092915050565b610343826100ea565b67ffffffffffffffff81111561035c5761035b6100f5565b5b6103668254610153565b6103718282856102ad565b600060209050601f8311600181146103a45760008415610392578287015190505b61039c858261031e565b865550610404565b601f1984166103b286610184565b60005b828110156103da578489015182556001820191506020850194506020810190506103b5565b868310156103f757848901516103f3601f891682610300565b8355505b6001600288020188555050505b505050505050565b6131068061041b6000396000f3fe608060405234801561001057600080fd5b50600436106101165760003560e01c806370a08231116100a2578063c87b56dd11610071578063c87b56dd146102db578063ca7d16671461030b578063e985e9c51461033b578063f851a4401461036b578063f9b343e61461038957610116565b806370a082311461025557806395d89b4114610285578063a22cb465146102a3578063b88d4fde146102bf57610116565b80631856864a116100e95780631856864a146101b557806323b872dd146101d157806342842e0e146101ed5780635fa8724b146102095780636352211e1461022557610116565b806301ffc9a71461011b57806306fdde031461014b578063081812fc14610169578063095ea7b314610199575b600080fd5b61013560048036038101906101309190612035565b6103a5565b604051610142919061207d565b60405180910390f35b6101536103b7565b6040516101609190612128565b60405180910390f35b610183600480360381019061017e9190612180565b610449565b60405161019091906121ee565b60405180910390f35b6101b360048036038101906101ae9190612235565b610465565b005b6101cf60048036038101906101ca9190612275565b61047b565b005b6101eb60048036038101906101e691906122a2565b6105be565b005b610207600480360381019061020291906122a2565b6106c0565b005b610223600480360381019061021e9190612180565b6106e0565b005b61023f600480360381019061023a9190612180565b61077c565b60405161024c91906121ee565b60405180910390f35b61026f600480360381019061026a9190612275565b61078e565b60405161027c9190612304565b60405180910390f35b61028d610848565b60405161029a9190612128565b60405180910390f35b6102bd60048036038101906102b8919061234b565b6108da565b005b6102d960048036038101906102d491906124c0565b6108f0565b005b6102f560048036038101906102f09190612180565b610915565b6040516103029190612128565b60405180910390f35b610325600480360381019061032091906125e4565b610927565b6040516103329190612304565b60405180910390f35b61035560048036038101906103509190612640565b610a5b565b604051610362919061207d565b60405180910390f35b610373610aef565b60405161038091906121ee565b60405180910390f35b6103a3600480360381019061039e9190612680565b610b15565b005b60006103b082610d19565b9050919050565b6060600080546103c690612702565b80601f01602080910402602001604051908101604052809291908181526020018280546103f290612702565b801561043f5780601f106104145761010080835404028352916020019161043f565b820191906000526020600020905b81548152906001019060200180831161042257829003601f168201915b5050505050905090565b600061045482610d7a565b5061045e82610e02565b9050919050565b6104778282610472610e3f565b610e47565b5050565b600760009054906101000a900473ffffffffffffffffffffffffffffffffffffffff1673ffffffffffffffffffffffffffffffffffffffff163373ffffffffffffffffffffffffffffffffffffffff161461050b576040517f08c379a0000000000000000000000000000000000000000000000000000000008152600401610502906127a5565b60405180910390fd5b600073ffffffffffffffffffffffffffffffffffffffff168173ffffffffffffffffffffffffffffffffffffffff160361057a576040517f08c379a000000000000000000000000000000000000000000000000000000000815260040161057190612837565b60405180910390fd5b80600960006101000a81548173ffffffffffffffffffffffffffffffffffffffff021916908373ffffffffffffffffffffffffffffffffffffffff16021790555050565b600073ffffffffffffffffffffffffffffffffffffffff168273ffffffffffffffffffffffffffffffffffffffff16036106305760006040517f64a0ae9200000000000000000000000000000000000000000000000000000000815260040161062791906121ee565b60405180910390fd5b6000610644838361063f610e3f565b610e59565b90508373ffffffffffffffffffffffffffffffffffffffff168173ffffffffffffffffffffffffffffffffffffffff16146106ba578382826040517f64283d7b0000000000000000000000000000000000000000000000000000000081526004016106b193929190612857565b60405180910390fd5b50505050565b6106db838383604051806020016040528060008152506108f0565b505050565b600960009054906101000a900473ffffffffffffffffffffffffffffffffffffffff1673ffffffffffffffffffffffffffffffffffffffff163373ffffffffffffffffffffffffffffffffffffffff1614610770576040517f08c379a000000000000000000000000000000000000000000000000000000000815260040161076790612900565b60405180910390fd5b61077981611073565b50565b600061078782610d7a565b9050919050565b60008073ffffffffffffffffffffffffffffffffffffffff168273ffffffffffffffffffffffffffffffffffffffff16036108015760006040517f89c62b640000000000000000000000000000000000000000000000000000000081526004016107f891906121ee565b60405180910390fd5b600360008373ffffffffffffffffffffffffffffffffffffffff1673ffffffffffffffffffffffffffffffffffffffff168152602001908152602001600020549050919050565b60606001805461085790612702565b80601f016020809104026020016040519081016040528092919081815260200182805461088390612702565b80156108d05780601f106108a5576101008083540402835291602001916108d0565b820191906000526020600020905b8154815290600101906020018083116108b357829003601f168201915b5050505050905090565b6108ec6108e5610e3f565b83836110f9565b5050565b6108fb8484846105be565b61090f610906610e3f565b85858585611268565b50505050565b606061092082611419565b9050919050565b6000600960009054906101000a900473ffffffffffffffffffffffffffffffffffffffff1673ffffffffffffffffffffffffffffffffffffffff163373ffffffffffffffffffffffffffffffffffffffff16146109b9576040517f08c379a00000000000000000000000000000000000000000000000000000000081526004016109b090612992565b60405180910390fd5b600073ffffffffffffffffffffffffffffffffffffffff168373ffffffffffffffffffffffffffffffffffffffff1603610a28576040517f08c379a0000000000000000000000000000000000000000000000000000000008152600401610a1f906129fe565b60405180910390fd5b60086000815480929190610a3b90612a4d565b919050559050610a4b838261152c565b610a55818361154a565b92915050565b6000600560008473ffffffffffffffffffffffffffffffffffffffff1673ffffffffffffffffffffffffffffffffffffffff16815260200190815260200160002060008373ffffffffffffffffffffffffffffffffffffffff1673ffffffffffffffffffffffffffffffffffffffff16815260200190815260200160002060009054906101000a900460ff16905092915050565b600760009054906101000a900473ffffffffffffffffffffffffffffffffffffffff1681565b600960009054906101000a900473ffffffffffffffffffffffffffffffffffffffff1673ffffffffffffffffffffffffffffffffffffffff163373ffffffffffffffffffffffffffffffffffffffff1614610ba5576040517f08c379a0000000000000000000000000000000000000000000000000000000008152600401610b9c90612b07565b60405180910390fd5b600073ffffffffffffffffffffffffffffffffffffffff168173ffffffffffffffffffffffffffffffffffffffff1603610c14576040517f08c379a0000000000000000000000000000000000000000000000000000000008152600401610c0b90612b99565b60405180910390fd5b600073ffffffffffffffffffffffffffffffffffffffff168273ffffffffffffffffffffffffffffffffffffffff1603610c83576040517f08c379a0000000000000000000000000000000000000000000000000000000008152600401610c7a90612c05565b60405180910390fd5b8173ffffffffffffffffffffffffffffffffffffffff16610ca38461077c565b73ffffffffffffffffffffffffffffffffffffffff1614610cf9576040517f08c379a0000000000000000000000000000000000000000000000000000000008152600401610cf090612c97565b60405180910390fd5b610d14828285604051806020016040528060008152506115a6565b505050565b6000634906490660e01b7bffffffffffffffffffffffffffffffffffffffffffffffffffffffff1916827bffffffffffffffffffffffffffffffffffffffffffffffffffffffff19161480610d735750610d72826115cb565b5b9050919050565b600080610d86836116ad565b9050600073ffffffffffffffffffffffffffffffffffffffff168173ffffffffffffffffffffffffffffffffffffffff1603610df957826040517f7e273289000000000000000000000000000000000000000000000000000000008152600401610df09190612304565b60405180910390fd5b80915050919050565b60006004600083815260200190815260200160002060009054906101000a900473ffffffffffffffffffffffffffffffffffffffff169050919050565b600033905090565b610e5483838360016116ea565b505050565b600080610e65846116ad565b9050600073ffffffffffffffffffffffffffffffffffffffff168373ffffffffffffffffffffffffffffffffffffffff1614610ea757610ea68184866118af565b5b600073ffffffffffffffffffffffffffffffffffffffff168173ffffffffffffffffffffffffffffffffffffffff1614610f3857610ee96000856000806116ea565b6001600360008373ffffffffffffffffffffffffffffffffffffffff1673ffffffffffffffffffffffffffffffffffffffff168152602001908152602001600020600082825403925050819055505b600073ffffffffffffffffffffffffffffffffffffffff168573ffffffffffffffffffffffffffffffffffffffff1614610fbb576001600360008773ffffffffffffffffffffffffffffffffffffffff1673ffffffffffffffffffffffffffffffffffffffff168152602001908152602001600020600082825401925050819055505b846002600086815260200190815260200160002060006101000a81548173ffffffffffffffffffffffffffffffffffffffff021916908373ffffffffffffffffffffffffffffffffffffffff160217905550838573ffffffffffffffffffffffffffffffffffffffff168273ffffffffffffffffffffffffffffffffffffffff167fddf252ad1be2c89b69c2b068fc378daa952ba7f163c4a11628f55a4df523b3ef60405160405180910390a4809150509392505050565b60006110826000836000610e59565b9050600073ffffffffffffffffffffffffffffffffffffffff168173ffffffffffffffffffffffffffffffffffffffff16036110f557816040517f7e2732890000000000000000000000000000000000000000000000000000000081526004016110ec9190612304565b60405180910390fd5b5050565b600073ffffffffffffffffffffffffffffffffffffffff168273ffffffffffffffffffffffffffffffffffffffff160361116a57816040517f5b08ba1800000000000000000000000000000000000000000000000000000000815260040161116191906121ee565b60405180910390fd5b80600560008573ffffffffffffffffffffffffffffffffffffffff1673ffffffffffffffffffffffffffffffffffffffff16815260200190815260200160002060008473ffffffffffffffffffffffffffffffffffffffff1673ffffffffffffffffffffffffffffffffffffffff16815260200190815260200160002060006101000a81548160ff0219169083151502179055508173ffffffffffffffffffffffffffffffffffffffff168373ffffffffffffffffffffffffffffffffffffffff167f17307eab39ab6107e8899845ad3d59bd9653f200f220920489ca2b5937696c318360405161125b919061207d565b60405180910390a3505050565b60008373ffffffffffffffffffffffffffffffffffffffff163b1115611412578273ffffffffffffffffffffffffffffffffffffffff1663150b7a02868685856040518563ffffffff1660e01b81526004016112c79493929190612d0c565b6020604051808303816000875af192505050801561130357506040513d601f19601f820116820180604052508101906113009190612d6d565b60015b611387573d8060008114611333576040519150601f19603f3d011682016040523d82523d6000602084013e611338565b606091505b50600081510361137f57836040517f64a0ae9200000000000000000000000000000000000000000000000000000000815260040161137691906121ee565b60405180910390fd5b805181602001fd5b63150b7a0260e01b7bffffffffffffffffffffffffffffffffffffffffffffffffffffffff1916817bffffffffffffffffffffffffffffffffffffffffffffffffffffffff19161461141057836040517f64a0ae9200000000000000000000000000000000000000000000000000000000815260040161140791906121ee565b60405180910390fd5b505b5050505050565b606061142482610d7a565b50600060066000848152602001908152602001600020805461144590612702565b80601f016020809104026020016040519081016040528092919081815260200182805461147190612702565b80156114be5780601f10611493576101008083540402835291602001916114be565b820191906000526020600020905b8154815290600101906020018083116114a157829003601f168201915b5050505050905060006114cf611973565b905060008151036114e4578192505050611527565b600082511115611519578082604051602001611501929190612dd6565b60405160208183030381529060405292505050611527565b6115228461198a565b925050505b919050565b6115468282604051806020016040528060008152506119f3565b5050565b8060066000848152602001908152602001600020908161156a9190612fa6565b507ff8e1a15aba9398e019f0b49df1a4fde98ee17ae345cb5f6b5e2c27f5033e8ce78260405161159a9190612304565b60405180910390a15050565b6115b1848484611a17565b6115c56115bc610e3f565b85858585611268565b50505050565b60007f80ac58cd000000000000000000000000000000000000000000000000000000007bffffffffffffffffffffffffffffffffffffffffffffffffffffffff1916827bffffffffffffffffffffffffffffffffffffffffffffffffffffffff1916148061169657507f5b5e139f000000000000000000000000000000000000000000000000000000007bffffffffffffffffffffffffffffffffffffffffffffffffffffffff1916827bffffffffffffffffffffffffffffffffffffffffffffffffffffffff1916145b806116a657506116a582611b84565b5b9050919050565b60006002600083815260200190815260200160002060009054906101000a900473ffffffffffffffffffffffffffffffffffffffff169050919050565b80806117235750600073ffffffffffffffffffffffffffffffffffffffff168273ffffffffffffffffffffffffffffffffffffffff1614155b1561185757600061173384610d7a565b9050600073ffffffffffffffffffffffffffffffffffffffff168373ffffffffffffffffffffffffffffffffffffffff161415801561179e57508273ffffffffffffffffffffffffffffffffffffffff168173ffffffffffffffffffffffffffffffffffffffff1614155b80156117b157506117af8184610a5b565b155b156117f357826040517fa9fbf51f0000000000000000000000000000000000000000000000000000000081526004016117ea91906121ee565b60405180910390fd5b811561185557838573ffffffffffffffffffffffffffffffffffffffff168273ffffffffffffffffffffffffffffffffffffffff167f8c5be1e5ebec7d5bd14f71427d1e84f3dd0314c0f7b2291e5b200ac8c7c3b92560405160405180910390a45b505b836004600085815260200190815260200160002060006101000a81548173ffffffffffffffffffffffffffffffffffffffff021916908373ffffffffffffffffffffffffffffffffffffffff16021790555050505050565b6118ba838383611bee565b61196e57600073ffffffffffffffffffffffffffffffffffffffff168373ffffffffffffffffffffffffffffffffffffffff160361192f57806040517f7e2732890000000000000000000000000000000000000000000000000000000081526004016119269190612304565b60405180910390fd5b81816040517f177e802f000000000000000000000000000000000000000000000000000000008152600401611965929190613078565b60405180910390fd5b505050565b606060405180602001604052806000815250905090565b606061199582610d7a565b5060006119a0611973565b905060008151116119c057604051806020016040528060008152506119eb565b806119ca84611caf565b6040516020016119db929190612dd6565b6040516020818303038152906040525b915050919050565b6119fd8383611d7d565b611a12611a08610e3f565b6000858585611268565b505050565b600073ffffffffffffffffffffffffffffffffffffffff168273ffffffffffffffffffffffffffffffffffffffff1603611a895760006040517f64a0ae92000000000000000000000000000000000000000000000000000000008152600401611a8091906121ee565b60405180910390fd5b6000611a9783836000610e59565b9050600073ffffffffffffffffffffffffffffffffffffffff168173ffffffffffffffffffffffffffffffffffffffff1603611b0a57816040517f7e273289000000000000000000000000000000000000000000000000000000008152600401611b019190612304565b60405180910390fd5b8373ffffffffffffffffffffffffffffffffffffffff168173ffffffffffffffffffffffffffffffffffffffff1614611b7e578382826040517f64283d7b000000000000000000000000000000000000000000000000000000008152600401611b7593929190612857565b60405180910390fd5b50505050565b60007f01ffc9a7000000000000000000000000000000000000000000000000000000007bffffffffffffffffffffffffffffffffffffffffffffffffffffffff1916827bffffffffffffffffffffffffffffffffffffffffffffffffffffffff1916149050919050565b60008073ffffffffffffffffffffffffffffffffffffffff168373ffffffffffffffffffffffffffffffffffffffff1614158015611ca657508273ffffffffffffffffffffffffffffffffffffffff168473ffffffffffffffffffffffffffffffffffffffff161480611c675750611c668484610a5b565b5b80611ca557508273ffffffffffffffffffffffffffffffffffffffff16611c8d83610e02565b73ffffffffffffffffffffffffffffffffffffffff16145b5b90509392505050565b606060006001611cbe84611e76565b01905060008167ffffffffffffffff811115611cdd57611cdc612395565b5b6040519080825280601f01601f191660200182016040528015611d0f5781602001600182028036833780820191505090505b509050600082602001820190505b600115611d72578080600190039150507f3031323334353637383961626364656600000000000000000000000000000000600a86061a8153600a8581611d6657611d656130a1565b5b04945060008503611d1d575b819350505050919050565b600073ffffffffffffffffffffffffffffffffffffffff168273ffffffffffffffffffffffffffffffffffffffff1603611def5760006040517f64a0ae92000000000000000000000000000000000000000000000000000000008152600401611de691906121ee565b60405180910390fd5b6000611dfd83836000610e59565b9050600073ffffffffffffffffffffffffffffffffffffffff168173ffffffffffffffffffffffffffffffffffffffff1614611e715760006040517f73c6ac6e000000000000000000000000000000000000000000000000000000008152600401611e6891906121ee565b60405180910390fd5b505050565b600080600090507a184f03e93ff9f4daa797ed6e38ed64bf6a1f0100000000000000008310611ed4577a184f03e93ff9f4daa797ed6e38ed64bf6a1f0100000000000000008381611eca57611ec96130a1565b5b0492506040810190505b6d04ee2d6d415b85acef81000000008310611f11576d04ee2d6d415b85acef81000000008381611f0757611f066130a1565b5b0492506020810190505b662386f26fc100008310611f4057662386f26fc100008381611f3657611f356130a1565b5b0492506010810190505b6305f5e1008310611f69576305f5e1008381611f5f57611f5e6130a1565b5b0492506008810190505b6127108310611f8e576127108381611f8457611f836130a1565b5b0492506004810190505b60648310611fb15760648381611fa757611fa66130a1565b5b0492506002810190505b600a8310611fc0576001810190505b80915050919050565b6000604051905090565b600080fd5b600080fd5b60007fffffffff0000000000000000000000000000000000000000000000000000000082169050919050565b61201281611fdd565b811461201d57600080fd5b50565b60008135905061202f81612009565b92915050565b60006020828403121561204b5761204a611fd3565b5b600061205984828501612020565b91505092915050565b60008115159050919050565b61207781612062565b82525050565b6000602082019050612092600083018461206e565b92915050565b600081519050919050565b600082825260208201905092915050565b60005b838110156120d25780820151818401526020810190506120b7565b60008484015250505050565b6000601f19601f8301169050919050565b60006120fa82612098565b61210481856120a3565b93506121148185602086016120b4565b61211d816120de565b840191505092915050565b6000602082019050818103600083015261214281846120ef565b905092915050565b6000819050919050565b61215d8161214a565b811461216857600080fd5b50565b60008135905061217a81612154565b92915050565b60006020828403121561219657612195611fd3565b5b60006121a48482850161216b565b91505092915050565b600073ffffffffffffffffffffffffffffffffffffffff82169050919050565b60006121d8826121ad565b9050919050565b6121e8816121cd565b82525050565b600060208201905061220360008301846121df565b92915050565b612212816121cd565b811461221d57600080fd5b50565b60008135905061222f81612209565b92915050565b6000806040838503121561224c5761224b611fd3565b5b600061225a85828601612220565b925050602061226b8582860161216b565b9150509250929050565b60006020828403121561228b5761228a611fd3565b5b600061229984828501612220565b91505092915050565b6000806000606084860312156122bb576122ba611fd3565b5b60006122c986828701612220565b93505060206122da86828701612220565b92505060406122eb8682870161216b565b9150509250925092565b6122fe8161214a565b82525050565b600060208201905061231960008301846122f5565b92915050565b61232881612062565b811461233357600080fd5b50565b6000813590506123458161231f565b92915050565b6000806040838503121561236257612361611fd3565b5b600061237085828601612220565b925050602061238185828601612336565b9150509250929050565b600080fd5b600080fd5b7f4e487b7100000000000000000000000000000000000000000000000000000000600052604160045260246000fd5b6123cd826120de565b810181811067ffffffffffffffff821117156123ec576123eb612395565b5b80604052505050565b60006123ff611fc9565b905061240b82826123c4565b919050565b600067ffffffffffffffff82111561242b5761242a612395565b5b612434826120de565b9050602081019050919050565b82818337600083830152505050565b600061246361245e84612410565b6123f5565b90508281526020810184848401111561247f5761247e612390565b5b61248a848285612441565b509392505050565b600082601f8301126124a7576124a661238b565b5b81356124b7848260208601612450565b91505092915050565b600080600080608085870312156124da576124d9611fd3565b5b60006124e887828801612220565b94505060206124f987828801612220565b935050604061250a8782880161216b565b925050606085013567ffffffffffffffff81111561252b5761252a611fd8565b5b61253787828801612492565b91505092959194509250565b600067ffffffffffffffff82111561255e5761255d612395565b5b612567826120de565b9050602081019050919050565b600061258761258284612543565b6123f5565b9050828152602081018484840111156125a3576125a2612390565b5b6125ae848285612441565b509392505050565b600082601f8301126125cb576125ca61238b565b5b81356125db848260208601612574565b91505092915050565b600080604083850312156125fb576125fa611fd3565b5b600061260985828601612220565b925050602083013567ffffffffffffffff81111561262a57612629611fd8565b5b612636858286016125b6565b9150509250929050565b6000806040838503121561265757612656611fd3565b5b600061266585828601612220565b925050602061267685828601612220565b9150509250929050565b60008060006060848603121561269957612698611fd3565b5b60006126a78682870161216b565b93505060206126b886828701612220565b92505060406126c986828701612220565b9150509250925092565b7f4e487b7100000000000000000000000000000000000000000000000000000000600052602260045260246000fd5b6000600282049050600182168061271a57607f821691505b60208210810361272d5761272c6126d3565b5b50919050565b7f4f6e6c792061646d696e2063616e207365742074686520636f6e74726f6c6c6560008201527f7220616464726573730000000000000000000000000000000000000000000000602082015250565b600061278f6029836120a3565b915061279a82612733565b604082019050919050565b600060208201905081810360008301526127be81612782565b9050919050565b7f436f6e74726f6c6c657220616464726573732063616e6e6f74206265207a657260008201527f6f00000000000000000000000000000000000000000000000000000000000000602082015250565b60006128216021836120a3565b915061282c826127c5565b604082019050919050565b6000602082019050818103600083015261285081612814565b9050919050565b600060608201905061286c60008301866121df565b61287960208301856122f5565b61288660408301846121df565b949350505050565b7f4f6e6c792074686520436f6e74726f6c6c65724d616e616765722063616e206260008201527f75726e2064657669636573000000000000000000000000000000000000000000602082015250565b60006128ea602b836120a3565b91506128f58261288e565b604082019050919050565b60006020820190508181036000830152612919816128dd565b9050919050565b7f4f6e6c792074686520436f6e74726f6c6c65724d616e616765722063616e206d60008201527f696e742064657669636573000000000000000000000000000000000000000000602082015250565b600061297c602b836120a3565b915061298782612920565b604082019050919050565b600060208201905081810360008301526129ab8161296f565b9050919050565b7f526563697069656e7420616464726573732063616e6e6f74206265207a65726f600082015250565b60006129e86020836120a3565b91506129f3826129b2565b602082019050919050565b60006020820190508181036000830152612a17816129db565b9050919050565b7f4e487b7100000000000000000000000000000000000000000000000000000000600052601160045260246000fd5b6000612a588261214a565b91507fffffffffffffffffffffffffffffffffffffffffffffffffffffffffffffffff8203612a8a57612a89612a1e565b5b600182019050919050565b7f4f6e6c792074686520436f6e74726f6c6c65724d616e616765722063616e207460008201527f72616e7366657220646576696365206f776e6572736869700000000000000000602082015250565b6000612af16038836120a3565b9150612afc82612a95565b604082019050919050565b60006020820190508181036000830152612b2081612ae4565b9050919050565b7f4e6577206f776e65722063616e6e6f7420626520746865207a65726f2061646460008201527f7265737300000000000000000000000000000000000000000000000000000000602082015250565b6000612b836024836120a3565b9150612b8e82612b27565b604082019050919050565b60006020820190508181036000830152612bb281612b76565b9050919050565b7f6f776e65722063616e6e6f7420626520746865207a65726f2061646472657373600082015250565b6000612bef6020836120a3565b9150612bfa82612bb9565b602082019050919050565b60006020820190508181036000830152612c1e81612be2565b9050919050565b7f50726f7669646564206f776e6572206973206e6f74207468652063757272656e60008201527f7420746f6b656e206f776e657200000000000000000000000000000000000000602082015250565b6000612c81602d836120a3565b9150612c8c82612c25565b604082019050919050565b60006020820190508181036000830152612cb081612c74565b9050919050565b600081519050919050565b600082825260208201905092915050565b6000612cde82612cb7565b612ce88185612cc2565b9350612cf88185602086016120b4565b612d01816120de565b840191505092915050565b6000608082019050612d2160008301876121df565b612d2e60208301866121df565b612d3b60408301856122f5565b8181036060830152612d4d8184612cd3565b905095945050505050565b600081519050612d6781612009565b92915050565b600060208284031215612d8357612d82611fd3565b5b6000612d9184828501612d58565b91505092915050565b600081905092915050565b6000612db082612098565b612dba8185612d9a565b9350612dca8185602086016120b4565b80840191505092915050565b6000612de28285612da5565b9150612dee8284612da5565b91508190509392505050565b60008190508160005260206000209050919050565b60006020601f8301049050919050565b600082821b905092915050565b600060088302612e5c7fffffffffffffffffffffffffffffffffffffffffffffffffffffffffffffffff82612e1f565b612e668683612e1f565b95508019841693508086168417925050509392505050565b6000819050919050565b6000612ea3612e9e612e998461214a565b612e7e565b61214a565b9050919050565b6000819050919050565b612ebd83612e88565b612ed1612ec982612eaa565b848454612e2c565b825550505050565b600090565b612ee6612ed9565b612ef1818484612eb4565b505050565b5b81811015612f1557612f0a600082612ede565b600181019050612ef7565b5050565b601f821115612f5a57612f2b81612dfa565b612f3484612e0f565b81016020851015612f43578190505b612f57612f4f85612e0f565b830182612ef6565b50505b505050565b600082821c905092915050565b6000612f7d60001984600802612f5f565b1980831691505092915050565b6000612f968383612f6c565b9150826002028217905092915050565b612faf82612098565b67ffffffffffffffff811115612fc857612fc7612395565b5b612fd28254612702565b612fdd828285612f19565b600060209050601f8311600181146130105760008415612ffe578287015190505b6130088582612f8a565b865550613070565b601f19841661301e86612dfa565b60005b8281101561304657848901518255600182019150602085019450602081019050613021565b86831015613063578489015161305f601f891682612f6c565b8355505b6001600288020188555050505b505050505050565b600060408201905061308d60008301856121df565b61309a60208301846122f5565b9392505050565b7f4e487b7100000000000000000000000000000000000000000000000000000000600052601260045260246000fdfea26469706673582212205e351aa05c2f0ea2cbdcd53138e964d8b3bcd4b41cfb31b327c7e9fc7e1531b264736f6c634300081c0033",
  "linkReferences": {},
  "deployedLinkReferences": {}
}